:100000000C9496000C94B61A0C94B61A0C94B61A6A
:100010000C94B61A0C94B61A0C94B61A0C94B61A20
:100020000C94B61A0C94B61A0C94B61A0C94B61A10
:100030000C94B61A0C94B61A0C94B61A0C94B61A00
:100040000C94B61A0C94B61A0C94B61A0C94B61AF0
:100050000C94B61A0C94B61A0C94B61A0C94B61AE0
:100060000C94B61A0C94B61A0C94B61A0C94B61AD0
:100070000C944C170C94B61A0C94B61A0C9479067E
:100080000C94B61A0C94B61A0C94B61A0C94B61AB0
:100090000C94B61A0C94B61A0C94B61A0C94B61AA0
:1000A0000C94B61A0C94B61A0C94B61A0C94B61A90
:1000B0000C94B61A0C9446130C94B61A0C94B61AF7
:1000C0000C94B61A0C94B61A0C94B61A8F089808A9
:1000D000A108AA08B308BC08C508CE08D7080100C3
:1000E000010280010204B400357A04B404F48004EF
:1000F000F4053A00392C053A0546800546056300AB
:1001000039720563058F80058F059100398F059140
:100110000599800599059A003991059A059B8005F6
:100120009B059C003992059C059E800011241FBEF2
:10013000CFEFD8E0DEBFCDBFEEEDF0E041E017C07D
:10014000B591A59135912591059107FD0CC095912B
:100150008591EF01F92FE82F05900D92A217B307B3
:10016000D9F7FE0104C01D92A217B307E1F7EB32E5
:10017000F40731F70E94BE020C943F1AF894FFCFA7
:10018000AEE0B0E0E6ECF0E00C9463184C016B01DB
:100190001A8219828FEF9FEF9C838B831E821D82B0
:1001A00058874F833A872987A12CB12CD6016D90AF
:1001B0007C90F301EA0DFB1D808181110FC0D601F7
:1001C000ED93FC938081853209F0D3C13F01BFEFED
:1001D0006B1A7B0AF6017182608219C0853279F34D
:1001E000B401082E000C990B0E94A9144FEFA41A19
:1001F000B40ADCCF8C32ACF08D32F9F489819A816B
:1002000081609A8389833196D601ED93FC93D60160
:10021000ED91FC9180818B3269F789819A818460AC
:10022000F0CF803221F489819A818860EACF8332CD
:1002300051F489819A818061E4CF803321F48981EE
:100240009A818260DECFB701C6010E94F1169E83BB
:100250008D8397FF0BC029813A81B1E02B273A8328
:1002600029839195819591099E838D8389819A81B6
:1002700080FF03C08D7F9A838983D601ED91FC9125
:10028000119780818E3249F43196ED93FC93B7013A
:10029000C6010E94F1169C838B83C6010E94E5175C
:1002A000582ED601ED91FC918081082E000C990BFF
:1002B0000E946C1A893609F443C084F4833609F429
:1002C00002C134F4853209F427C18136E1F030C12E
:1002D0008436B1F188360CF4D9C02AC1803709F4CC
:1002E0009AC03CF48E3609F4BCC08F3609F461C064
:1002F0001FC1853709F440C0883709F476C08337B9
:1003000009F016C1F3C0652D70E0A701CE010B9670
:100310000E940000892B09F426C1D601ED91FC91C1
:100320001197CF0101968D939C932081AE01455F7B
:100330005F4FBE016F5F7F4FC4010E94000010C17C
:10034000652D70E0970141E050E0CE010B960E94D0
:100350004A11892B09F407C1F60180819181019628
:1003600091838083AE01455F5F4FBE016F5F7F4F1A
:10037000C4010E94930FF4C0652D70E0970140E026
:1003800050E0CE010B960E944A11892B09F4EBC074
:10039000D6018D919C91119701968D939C93AE01FE
:1003A000455F5F4FBE016F5F7F4FC4010E94F51430
:1003B000D7C0652D70E0970140E050E0CE010B966C
:1003C0000E944A11892B09F4CEC0F60180819181E7
:1003D000019691838083AE01455F5F4FBE016F5FE1
:1003E0007F4FC4010E940014BBC0652D70E09701CF
:1003F00040E050E0CE010B960E944A11892B09F48F
:10040000B2C0D601ED91FC911197CF0101968D9369
:100410009C9320811CC0970140E050E060EF70E0A9
:10042000CE010B960E944A11892B09F49CC0F6015B
:10043000808191810196918380838B859C85892B16
:1004400029F420E030E045E555E084C028E7AE011E
:10045000455F5F4FBE016F5F7F4FC4010E942C0C50
:100460007FC0A501400F511F652D70E09701CE019F
:100470000B960E940000892B09F475C0D6018D915E
:100480009C91119701968D939C9373C0652D70E09C
:10049000A701CE010B960E940000892B09F463C0CE
:1004A000D601ED91FC911197CF0101968D939C930C
:1004B0002081AE01455F5F4FBE016F5F7F4FC4017A
:1004C0000E9400004DC0B0E85B124DC0F601808173
:1004D0009181019691838083D701ED91FC911197D1
:1004E000CF0102968D939C93808120C0B0E85B126F
:1004F0003AC0F60180819181019691838083D70172
:10050000ED91FC911197CF0102968D939C934081C0
:10051000518120E030E01EC0B0E85B1224C0F6013B
:10052000208131812F5F3F4F318320838B870DC026
:1005300085E28B87D6016D927C921A8219821E8287
:100540001D828FEF9FEF9C838B8321E030E0AE0113
:10055000455F5F4FBE016F5F7F4FC4010E947717F9
:100560008A0D9B1D07C0F6018081918101969183C0
:0C0570008083C5012E96EFE00C949A18D1
:10057C00CF93DF93CDB7DEB7A0970FB6F894DEBF5D
:10058C000FBECDBFE1E6F0E080E8808381E08083A0
:10059C000E94A419789488E994E00E94E5190E94BD
:1005AC0022190E9405180E94A51360915B05709199
:1005BC005C0580915D0590915E050E941A0D81E0AD
:1005CC000E945C1A8CE30E94B2118CE30E94A71A61
:1005DC008DE30E94B2118DE30E94A71A249A2C9AE3
:1005EC00209A289A279A2F9A8FEF91E09093A70040
:1005FC008093A60080E091E09093AB008093AA00DA
:10060C0082E28093A00089E18093A10084E0809332
:10061C00720040E050E0BA0180E091E00E94821943
:10062C0010927705109278051092790586E68093E2
:10063C007A0525982D9881E48093910080E280932F
:10064C0071000E94741080E00E943708E12CF12C9C
:10065C00DD24D3946894CC24C1F8AA24A394B12C9F
:10066C000E948B0E182F882341F0809191058823CE
:10067C0031F0F09291057D2C03C07F2C01C07F2CB2
:10068C00CE0101960E94E5128823A9F0CE010196B5
:10069C000E94C5090F2D2FEA33E046E06F2D8CE345
:1006AC000E941F179E012F5F3F4F46E06F2D8CE37A
:1006BC000E941F177D2C80919405813071F018F0E9
:1006CC00823071F1EBC08FEF810F843008F002C1E2
:1006DC00D0929405F09293050AC1113049F480919F
:1006EC009305882309F403C1815080939305FFC0BF
:1006FC00123039F4809193058111F9C0D092930591
:10070C00F6C0153009F0E6C0C0929405D092900561
:10071C00D0928F05B0928405A09283057D2CDAC00F
:10072C0080919305811118C089EF810F823008F0F8
:10073C00F3C08D2D9091920591118F2D8093920580
:10074C00811102C02C9A01C02C98D0928F05109266
:10075C008405109283059CC0813009F0DDC01330F4
:10076C0071F480919005882319F081508093900545
:10077C00D0928F051092840510928305D6C0143048
:10078C0071F480919005873018F48F5F80939005F9
:10079C00D0928F051092840510928305C6C089EF04
:1007AC00810F823008F0B8C0E091900524E0E29F00
:1007BC00F0011124EC50FB4F408151816281738117
:1007CC00173049F580915B0590915C05A0915D0512
:1007DC00B0915E05480F591F6A1F7B1F413084E2A0
:1007EC00580784EF6807710548F440935B055093F4
:1007FC005C0560935D0570935E053AC080E094E201
:10080C00A4EFB0E080935B0590935C05A0935D052D
:10081C00B0935E052DC080915B0590915C05A09115
:10082C005D05B0915E052A013B0122E1520E2AE7DB
:10083C00621E711C84159505A605B70568F0841B0E
:10084C00950BA60BB70B80935B0590935C05A0935F
:10085C005D05B0935E050CC080E092E1AAE7B0E0C4
:10086C0080935B0590935C05A0935D05B0935E054A
:10087C0060915B0570915C0580915D0590915E05C2
:10088C000E941A0DD0928F05109284051092830548
:10089C00193009F04AC0D092940529C08091940572
:1008AC008230C1F401C07D2C809183059091840528
:1008BC00019690938405809383058035910550F0C3
:1008CC0080918F058D2580938F0510928405109251
:1008DC0083050DC071100BC0111124C0E39491E37A
:1008EC009E15E8F080919705811119C00EC00E94E9
:1008FC007410111104C080919705882329F0812F61
:10090C000E943708E12C01C0E12CAFE9BFE0119740
:10091C00F1F700C00000A4CE193031F6BCCF0E9414
:10092C007410E9CF0E947410EACF80919405823044
:04093C00F1F6B9CF48
:100940003F924F925F926F927F928F929F92AF925F
:10095000BF92CF92DF92EF92FF920F931F93CF93AC
:10096000DF93CDB7DEB764970FB6F894DEBF0FBE46
:10097000CDBF633008F0A5C129013A0194E0491ABE
:10098000510861087108EDEF4E16E7E05E0661045C
:10099000710408F096C125013601F1E04F1A5108A3
:1009A000610871089FEF491659069FE069067104B6
:1009B00008F087C1E114F104E0E10E07110508F029
:1009C00080C1250136014701580169017A01162FBE
:1009D000082F81149104A104B10431F5F4E0CF1A79
:1009E000D108E108FEEFFF0ACC0CDD1CEE1CFF1C59
:1009F000CC0CDD1CEE1CFF1CCC0CDD1CEE1CFF1C0B
:100A0000CC0CDD1CEE1CFF1CCC0CDD1CEE1CFF1CFA
:100A1000CC0CDD1CEE1CFF1CCC0CDD1CEE1CFF1CEA
:100A200040E050E0BA01DBC021E04216510461040D
:100A3000710409F048C0D501C4010497A109BE4F53
:100A4000C80ED91EEA1EFB1ECC0CDD1CEE1CFF1CC2
:100A5000CC0CDD1CEE1CFF1CCC0CDD1CEE1CFF1CAA
:100A6000CC0CDD1CEE1CFF1CCC0CDD1CEE1CFF1C9A
:100A7000CC0CDD1CEE1CFF1CCC0CDD1CEE1CFF1C8A
:100A8000B501A4014150510961097E4F440F551F22
:100A9000661F771F440F551F661F771F440F551F92
:100AA000661F771F440F551F661F771F440F551F82
:100AB000661F771F440F551F661F771F440F551F72
:100AC000661F771F8CC0C301B2010E947915698728
:100AD0007A878B879C87C501B4010E947915298587
:100AE0003A854B855C850E94AB1A20E030E040E0FF
:100AF00053E40E94AF1A0E941F0F6D877E878F8775
:100B0000988BD701C601880F991FAA1FBB1F880F9A
:100B1000991FAA1FBB1F880F991FAA1FBB1F880FF1
:100B2000991FAA1FBB1F880F991FAA1FBB1F880FE1
:100B3000991FAA1FBB1FBC01CD01660F771F881F1D
:100B4000991F0E9479152D853E854F8558890E94F1
:100B5000751A20E030E040E054E40E94741A0E94CC
:100B6000C2166B017C01D501C401880F991FAA1F11
:100B7000BB1F880F991FAA1FBB1F880F991FAA1F91
:100B8000BB1F880F991FAA1FBB1F880F991FAA1F81
:100B9000BB1F880F991FAA1FBB1FBC01CD01660F89
:100BA000771F881F991F0E947915698B7A8B8B8B11
:100BB0009C8B2D853E854F85588969857A858B85E7
:100BC0009C850E94AF1A9B01AC0169897A898B8947
:100BD0009C890E94741A0E94C216AB01BC0111309C
:100BE00049F018F0123059F00FC00F2EFAE23F2EE4
:100BF000F02D0BC00F2EF2E33F2EF02D06C00F2E6E
:100C0000FAE33F2EF02D01C0312C59824A82D701E0
:100C1000C601A37024E0129FF0011124E65CFA4F94
:100C20002081822F8A2B8B83DC82CD82D301C2016B
:100C300088279927AF70BB27072E7CE0B695A7952C
:100C4000979587957A95D1F7702D6A017B01EFE032
:100C5000EE228E298E835F8348870E94F91880E6F2
:100C60000E949319832D0E94111ACE0101967C01D6
:100C70006E0199E0C90ED11CF70181917F010E949C
:100C8000111AEC14FD04C1F70E94A31A013011F4EB
:100C90006FE201C06FE089288A288B2809F460641C
:100CA000113041F018F0123049F00BC080E10E9481
:100CB0004A1907C081E10E944A1903C082E10E94DB
:100CC0004A1964960FB6F894DEBF0FBECDBFDF9110
:100CD000CF911F910F91FF90EF90DF90CF90BF9039
:100CE000AF909F908F907F906F905F904F903F90CC
:020CF000089565
:100CF2000F920FB60F921F9211248F929F92AF9272
:100D0200BF92CF92DF92EF92FF920F931F932F9396
:100D12003F934F935F936F937F938F939F93AF9381
:100D2200BF93CF93DF93EF93FF9380918D059091C3
:100D32008E05019690938E0580938D0595B181E085
:100D4200892785B9C0919600D09197008091960528
:100D5200882309F450C18091850590918605C817B2
:100D6200D90748F080918505909186058E01081B70
:100D7200190BC80108C080918505909186059E01D6
:100D8200281B390BC901009709F435C190938C05D2
:100D920080938B05409163055091640560916505D0
:100DA200709166058A019B01080F191F211D311DD3
:100DB20000936305109364052093650530936605DF
:100DC200809195058F5F809395058091950580327E
:100DD20008F411C1209163053091640540916505C5
:100DE2005091660510926305109264051092650594
:100DF2001092660510929505809073059090740587
:100E0200A0907505B0907605C0907305D0907405DA
:100E1200E0907505F090760560E072E18AE790E077
:100E22000E94C317DA01C901072E71E1880F991FC9
:100E3200AA1FBB1F7A95D1F7702D689415F8B69446
:100E4200A794979487941694D1F788199909AA09B7
:100E5200BB098C0D9D1DAE1DBF1D80937305909324
:100E62007405A0937505B0937605809173059091F2
:100E72007405A0917505B0917605C0906F05D0906C
:100E82007005E0907105F090720540916F055091E8
:100E920070056091710570917205689415F8B695A8
:100EA200A795979587951694D1F7840F951FA61F3E
:100EB200B71FB701A601689415F8769567955795FF
:100EC20047951694D1F7841B950BA60BB70B80930D
:100ED2006F0590937005A0937105B0937205809190
:100EE2006F0590917005A0917105B0917205C09047
:100EF2006B05D0906C05E0906D05F0906E05409109
:100F02006B0550916C0560916D0570916E0568944A
:100F120015F8B695A795979587951694D1F7840FEE
:100F2200951FA61FB71FB701A601689415F87695FD
:100F32006795579547951694D1F7841B950BA60B89
:100F4200B70B80936B0590936C05A0936D05B093DE
:100F52006E0580916B0590916C05A0916D05B09125
:100F62006E05C0906705D0906805E0906905F09025
:100F72006A05409167055091680560916905709115
:100F82006A05689415F8B695A7959795879516946E
:100F9200D1F7840F951FA61FB71FB701A60168944A
:100FA20015F876956795579547951694D1F7841B52
:100FB200950BA60BB70B8093670590936805A093DA
:100FC2006905B0936A058091670590916805A091C3
:100FD2006905B0916A05689415F8B695A795979535
:100FE20087951694D1F780937F0590938005A093FF
:100FF2008105B0938205D0938605C093850581E073
:10100200809396058091890590918A050196909327
:101012008A05809389058091890590918A05883C8B
:10102200910538F010928A051092890581E080932B
:101032009705FF91EF91DF91CF91BF91AF919F9172
:101042008F917F916F915F914F913F912F911F915E
:101052000F91FF90EF90DF90CF90BF90AF909F9055
:0C1062008F901F900F900FBE0F901895FC
:10106E002F923F924F925F926F927F929F92AF928A
:10107E00BF92CF92DF92EF92FF920F931F93CF9377
:10108E00DF93CDB7DEB76C970FB6F894DEBF0FBE09
:10109E00CDBF182F80919405813029F0823031F424
:1010AE008EE993E005C080E993E002C087E993E002
:1010BE009F938F9385EA93E09F938F93CE01019632
:1010CE007C019F938F930E945E1900E0970140E090
:1010DE0061E08CE30E941F170F900F900F900F90FE
:1010EE000F900F90112309F463C02FEA33E042E012
:1010FE0061E08CE30E941F17812F90E0FC01319775
:10110E00E930F10508F054C0EA59FF4F0C949D1ACE
:10111E0001E020EC33E043E060E08CE30E941F1717
:10112E0047C001E028EC33E043E060E08CE30E942E
:10113E001F173EC001E022ED33E043E060E08CE398
:10114E000E941F1735C001E02CED33E043E060E054
:10115E008CE30E941F172CC001E027EE33E043E022
:10116E0060E08CE30E941F1723C001E022EF33E002
:10117E0043E060E08CE30E941F171AC001E02CEFE1
:10118E0033E043E060E08CE30E941F1711C001E0E2
:10119E0027E034E043E060E08CE30E941F1708C0B4
:1011AE0001E023E134E043E060E08CE30E941F178E
:1011BE0080919705882309F4C9C0A0908B05B09043
:1011CE008C0540907F055090800560908105709051
:1011DE008205C301B20120E432E44FE050E00E94E8
:1011EE00C317922EC22ED32EE42EF52E162F072FB6
:1011FE00382E292E28EE33E040E050E00E94C3172F
:10120E00298F3A8F4B8F5C8F6D8B7E8B8F8B988F48
:10121E0086E5898383E48A838FE48B838AE38C83D8
:10122E009AE0C916D104E104F10428F480E38D8319
:10123E00890D8E8314C0C301B20120E836E948E956
:10124E0050E00E94C317205D2D83C701B6012AE02E
:10125E0030E040E050E00E94C317605D6E830F2EB9
:10126E00FEE2FF2EF02DFF82612F702F832D922D27
:10127E0020EA36E841E050E00E94C317205D28873F
:10128E00612F702F832D922D20E137E240E050E048
:10129E000E94C3170F2EFAE04F2E512C612C712C89
:1012AE00F02DCA01B901A30192010E94C317605D1E
:1012BE006987698D7A8D8B8D9C8DA30192010E9419
:1012CE00C317605D6A87FB866D897E898F89988DCD
:1012DE0024E630E040E050E00E94C317205D2C87EA
:1012EE006D897E898F89988DA30192010E94C31703
:1012FE00162FCA01B901A30192010E94C317605DA6
:10130E006D87105D1E871F8600E0CE0101967C0161
:10131E009C0143E060E08CE30E941F17BF92AF92E6
:10132E008EE194E09F938F93FF92EF920E945E194D
:10133E00970144E060E08CE30E941F17109297051E
:10134E000F900F900F900F900F900F906C960FB60E
:10135E00F894DEBF0FBECDBFDF91CF911F910F91DD
:10136E00FF90EF90DF90CF90BF90AF909F907F90C7
:0C137E006F905F904F903F902F9008956B
:10138A000F931F93CF93DF93CDB7DEB7C054D10924
:10139A000FB6F894DEBF0FBECDBF8C0181E08093FB
:1013AA00910542E050E064E573E0C8010E94241808
:1013BA00892B91F5F80182818B33F1F481E090E079
:1013CA0020919205213009F080E09F938F9386E265
:1013DA0094E09F938F938E010F5F1F4F1F930F937C
:1013EA000E945E19C8010E94E5190F900F900F9094
:1013FA000F900F900F9005C190ED980F923008F062
:10140A0000C1813329F481E0809392052C98F9C0B8
:10141A00109292052C9AF5C042E050E06CE274E01A
:10142A00C8010E942418892B09F03FC0F801828163
:10143A008B3301F580915E058F9380915D058F93C3
:10144A0080915C058F9380915B058F938FE294E086
:10145A009F938F938E010F5F1F4F1F930F930E94CD
:10146A005E19C8010E94E5190FB6F894DEBF0FBED7
:10147A00CDBFC7C0C80102960E9459148B019C01B6
:10148A00005412442F403109013411482A4B31408B
:10149A0008F0B7C060935B0570935C0580935D05A7
:1014AA0090935E050E941A0DACC042E050E068E3DA
:1014BA0074E0C8010E942418892B89F5F8018281F9
:1014CA008B3301F5809162058F93809161058F932B
:1014DA00809160058F9380915F058F938BE394E0F1
:1014EA009F938F938E010F5F1F4F1F930F930E943D
:1014FA005E19C8010E94E5190FB6F894DEBF0FBE47
:10150A00CDBF7FC0C80102960E94591460935F053F
:10151A0070936005809361059093620572C043E001
:10152A0050E064E474E0C8010E942418892B01F594
:10153A0080915E058F9380915D058F9380915C0504
:10154A008F9380915B058F9388E494E09F938F93A8
:10155A008E010F5F1F4F1F930F930E945E19C801E0
:10156A000E94E5190FB6F894DEBF0FBECDBF49C081
:10157A0043E050E061E674E0C8010E942418892B18
:10158A0029F485E694E00E94E5193BC044E050E066
:10159A006DE674E0C8010E942418892B29F482E7B9
:1015AA0094E00E94E5192DC044E050E068E774E039
:1015BA00C8010E942418892B29F48DE794E00E941F
:1015CA00E5191FC044E050E065E874E0C8010E94D4
:1015DA002418892B29F48AE894E00E94E51911C09D
:1015EA0042E050E060E974E0C8010E942418892BA7
:1015FA0041F4F80182818B3321F483E994E00E945B
:10160A00E519C05CDF4F0FB6F894DEBF0FBECDBF41
:0A161A00DF91CF911F910F91089509
:101624004F925F926F927F928F929F92AF92BF92EE
:10163400CF92DF92EF92FF920F931F93CF93DF939A
:10164400CDB7DEB72A970FB6F894DEBF0FBECDBF75
:1016540089876A8729013A0147015801862F8F50EB
:101664008C3408F0E0C0D801C7010197A109B10981
:101674008F3F9F4FAF40B10508F0D5C041145104CE
:1016840080E16806710408F0CEC04114510461047D
:10169400710479F4C62ED12C24E0C21AD108D69450
:1016A400DC2CCC24D794C7940D2C000CEE08FF0836
:1016B40071C0C801B7010E94791569837A838B834D
:1016C4009C83C301B2010E94791529813A814B811F
:1016D4005C810E94AB1A20E030E040E053E40E94B9
:1016E400AF1A0E941F0F6D837E838F8398879A851C
:1016F40080E8989FB0011124072E000C880B990BE9
:101704000E947B152D813E814F8158850E94751A58
:1017140020E030E040E054E40E94741A0E94C216B3
:101724006B017C01D301C201880F991FAA1FBB1F43
:10173400880F991FAA1FBB1F880F991FAA1FBB1FC1
:10174400880F991FAA1FBB1F880F991FAA1FBB1FB1
:10175400880F991FAA1FBB1FBC01CD01660F771FFD
:10176400881F991F0E9479152B013C012D813E8110
:101774004F81588569817A818B819C810E94AF1A3F
:101784009B01AC01C301B2010E94741A0E94C216EB
:101794002B013C012985222319F082E2898302C0AE
:1017A4009AE19983692D89810E944A19682D89815A
:1017B4008F5F0E944A19D701C60188279927A37011
:1017C400BB27BD018827992789818E5F0E944A190A
:1017D4006D2D89818D5F0E944A196C2D89818C5FE2
:1017E4000E944A19882499242FE0A222BB24072EA0
:1017F4007CE0B694A794979487947A95D1F7702D4A
:10180400D301C201AF70682D6A2B89818B5F0E945E
:101814004A19652D89818A5F0E944A19642D89813C
:10182400895F0E944A192A960FB6F894DEBF0FBE4C
:10183400CDBFDF91CF911F910F91FF90EF90DF907B
:10184400CF90BF90AF909F908F907F906F905F905C
:041854004F90089514
:10185800AFE0B0E0E2E3FCE00C9460181C016B011F
:101868005A8349832B83FB018281938184809580ED
:1018780000811181A680B78097FD02C00D7F02C04C
:1018880081E090E0E981FA81408051806280738034
:101898009801207133273D832C83740104FF08C00D
:1018A800411451046104710419F032E0E31AF1089B
:1018B800F801E870FF27FF83EE8303FF03C0F1E020
:1018C800EF1AF108F6010084F185E02D3197FF87C2
:1018D800EE87EA0DFB1D10829C012E193F093987FE
:1018E8002887C801827099279B878A87EB818E2F6A
:1018F800EE0F990B9C01215431093D872C872E85C9
:101908003F852230310530F48C819D81892B09F087
:1019180042C05CC0411451046104710461F18E85B8
:101928009F8501979F878E87C2018F7099278A307C
:10193800910514F4C09602C0895A9F4FEC85FD8525
:101948007A9748F49C012062215631092A313105E1
:1019580010F40E94531AEE85FF85EA0DFB1D808363
:10196800F1E0EF1AF10884E076946794579447946D
:101978008A95D1F7C4CF888599858E0D9F1D181635
:1019880019066CF21E141F040CF0BECFEA85FB8505
:10199800EF2B29F6B9CFE981FA8180819181A28163
:1019A800B381892B8A2B8B2B89F0EE85FF85EA0D75
:1019B800FB1D31972B8120838E859F8502979F87FA
:1019C8008E87FC01EA0DFB1D80E38083EE81FF8199
:1019D800EF2B59F02E853F85215031093F872E87FF
:1019E800F901EA0DFB1D80E28083F60140855185EF
:1019F800415051092E853F85421B530BB9016A0D91
:101A08007B1D9401C1010E94F0159C01F1018081A8
:101A1800918190FF06C0F601828193818217930716
:0C1A28000CF4C9012F96E2E10C94971811
:101A34004F925F926F927F928F929F92AF92BF92DA
:101A4400CF92DF92EF92FF920F931F936B017C0171
:101A540060E076E483EC93E2A70196010E94C31749
:101A640029013A01DA01C90183709927AA27BB2702
:101A7400892B8A2B8B2B79F08FEF481A580A680A26
:101A8400780AD301C20183709927AA27BB27892B1F
:101A94008A2B8B2B89F7A7019601C301B2010E94FF
:101AA400C619AB01BC014115E6E45E07E3EC6E0721
:101AB400E3E27E0760F5CC0CDD1CEE1CFF1CCC0CB5
:101AC400DD1CEE1CFF1C4C0D5D1D6E1D7F1D88244E
:101AD400992454018C189D08AE08BF0802C0AC01BB
:101AE400BD0184E0480E511C611C711CDB01CA015C
:101AF4008C0D9D1DAE1DBF1D8C019D01080D191D72
:101B04002A1D3B1D01151644234C334240F3CB01DF
:101B1400BA0120E438E74DE751E00E94C317D22E02
:101B240029E130E040E050E00E94C31710E4E12EC8
:101B340012E4F12E0FE010E06D2D80E00E94120BF4
:101B4400A12CB12C6501A394E12CF12C8701A301F4
:101B5400920160E080E00E94A004A301920161E090
:101B640080E00E94A0046FE480E10E940E196FE4FB
:101B740081E10E940E1960E882E10E940E196CEF67
:101B840083E00E940E19642D85EA0E940E1960E01C
:101B940086EA0E940E1960E281EB0E940E191F91E1
:101BA4000F91FF90EF90DF90CF90BF90AF909F90F8
:0C1BB4008F907F906F905F904F9008958D
:101BC0004F925F926F927F928F929F92AF92BF924D
:101BD000CF92DF92EF92FF920F931F93CF93DF93F9
:101BE000CDB7DEB764970FB6F894DEBF0FBECDBF9A
:101BF000E82E40905B0550905C0560905D0570900C
:101C00005E050F2EF8EE8F2EF3E09F2EA12CB12C47
:101C1000F02DC301B201A50194010E94C3179F9347
:101C20008F937F936F93C301B20120E432E44FE0BE
:101C300050E00E94C317122F032FF42ED52EA501BA
:101C400094010E94C3175F934F933F932F93DF92AA
:101C5000FF920F931F938CE393E09F938F93CE019A
:101C600001969F938F930E94701929810FB6F89463
:101C7000DEBF0FBECDBF2223B9F110E0F12CD12C75
:101C8000CC24C39480919405813039F40C2D80913B
:101C900093058130C1F00D2D16C0823079F480910A
:101CA0009305813069F4E0919005F0E0EA5BFA4F2A
:101CB0008081811307C000918F0505C00D2D03C0E1
:101CC0000D2D01C00D2D4E2D6F2D8DE30E943C1565
:101CD00096E0F90E1F5FE1E0F0E0EC0FFD1FE10F71
:101CE000F11D20812111CECF64960FB6F894DEBF8E
:101CF0000FBECDBFDF91CF911F910F91FF90EF905D
:101D0000DF90CF90BF90AF909F908F907F906F901B
:061D10005F904F90089562
:101D1600CF93DF9389B1829581704D998260E0916E
:101D26009B058E17D9F080939B0594E0E99FF001FF
:101D36001124E82BF0E0E65DFA4F208190919A0598
:101D4600920F833019F090939A0508C010929A0565
:101D560092300CF05FC09F3F0CF45EC04E9908C0F5
:101D66008FE39CE90197F1F700C000004E9B56C037
:101D7600049917C080919805863918F48F5F80936F
:101D8600980580919805863909F44AC0813059F43E
:101D96008FE39CE90197F1F700C00000049B42C065
:101DA60002C01092980586E00E94B218EC0187E006
:101DB6000E94B2189C01909199059923E1F0C436CE
:101DC600D10520F41092990584E033C0C538D3407C
:101DD60020F01092990583E02CC02436310520F4BA
:101DE6001092990582E025C025383340E8F010921C
:101DF600990581E01EC0C059D140C93CD105B0F457
:101E060020593140293C310598F481E080939905A9
:101E160080E00FC088E00DC087E00BC089E009C0F4
:101E260086E007C085E005C080E003C080E001C011
:081E360080E0DF91CF910895D7
:101E3E008F929F92AF92BF92CF92DF92EF92FF92CC
:101E4E000F931F938B019C011127032F000F111F5E
:101E5E0027FB00F9222733271127A8014F575109D5
:101E6E00473151050CF045C057FD2DC00FEF1FEF48
:101E7E002FE730E004C035952795179507954A95BD
:101E8E00D2F74801590186229722A822B922892821
:101E9E008A288B2871F197FF07C0DC01CB01800FD8
:101EAE00911FA21FB31F02C0DC01CB01009510953C
:101EBE002095309580239123A223B323482F392FC9
:101ECE002A2F5B2F1AC097FF0FC08B019C01000FAA
:101EDE00111F221F331F012B022B032B51F040E049
:101EEE0030E020E85FEB09C040E030E020E050E059
:101EFE0004C0462F372F282F592F642F732F822F70
:101F0E00952F1F910F91FF90EF90DF90CF90BF9084
:081F1E00AF909F908F90089591
:101F2600A2E0B0E0E9E9FFE00C9460183C016B0127
:101F3600FB0122813381A480B580808191819A83BF
:101F4600898386809780FA01208031804280538081
:101F5600B201A10157FE07C044275527BA0142190D
:101F660053096409750937FD03C08D7F9A838983F8
:101F7600950157FC05C0898182FD02C083FF02C01E
:101F860021503109CE0101967C010AE010E0C6011C
:101F96000E94801257FC03C0298122FF0AC00197C4
:101FA600F401E80FF91F57FC02C02BE209C02DE22D
:101FB60007C023FF06C00197F401E80FF91F20E2CE
:101FC600208309811A81F6014085518541505109C6
:101FD600481B590BB401680F791F9501C3010E9474
:101FE600F0159C01F3018081918190FF06C0F601F6
:101FF60082819381821793070CF4C9012296E2E14C
:042006000C94971887
:10200A0010C00E94821A58F00E947B1A40F029F4EC
:10201A005F3F29F00C94971A51110C948A1A0C9468
:10202A00B31A0E94A11768F39923B1F3552391F3C8
:10203A00951B550BBB27AA2762177307840738F02D
:10204A009F5F5F4F220F331F441FAA1FA9F335D08A
:10205A000E2E3AF0E0E832D091505040E695001C3E
:10206A00CAF72BD0FE2F29D0660F771F881FBB1FF8
:10207A00261737074807AB07B0E809F0BB0B802DD6
:10208A00BF01FF2793585F4F3AF09E3F510578F002
:10209A000C94971A0C948A1A5F3FE4F3983ED4F38F
:1020AA00869577956795B795F7959F5FC9F7880FD6
:1020BA00911D9695879597F90895E1E0660F771F28
:1020CA00881FBB1F621773078407BA0720F0621BB9
:0E20DA00730B840BBA0BEE1F88F7E095089588
:1020E800EF92FF920F93CF93DF93CDB7DEB764974C
:1020F8000FB6F894DEBF0FBECDBF8091920588233E
:1021080019F084E593E002C081E593E09F938F93F3
:1021180081E693E09F938F93CE0101967C019F9374
:102128008F930E945E1980E00E947C18082F970107
:1021380040E060E08DE30E941F170F900F900F9012
:102148000F900F900F9080919105882319F08CE5DE
:1021580093E002C087E593E09F938F9380E793E035
:102168009F938F93CE0101967C019F938F930E943A
:102178005E1900E0970142E060E08DE30E941F17BE
:102188002DE733E044E060E08DE30E941F1786E00E
:102198000E94E00D0F900F900F900F900F900F90EE
:1021A80064960FB6F894DEBF0FBECDBFDF91CF9116
:0821B8000F91FF90EF900895D4
:1021C0000FC00E947B1A38F00E94821A20F09523DB
:1021D00011F00C94971A0C94B31A11240C948A1AC7
:1021E0000E94A11770F3959FC1F3950F50E0551F02
:1021F000629FF001729FBB27F00DB11D639FAA275C
:10220000F00DB11DAA1F649F6627B00DA11D661FAA
:10221000829F2227B00DA11D621F739FB00DA11DCB
:10222000621F839FA00D611D221F749F3327A00D85
:10223000611D231F849F600D211D822F762F6A2F21
:1022400011249F5750409AF0F1F088234AF0EE0F86
:10225000FF1FBB1F661F771F881F91505040A9F7B3
:102260009E3F510580F00C94971A0C948A1A5F3F98
:10227000E4F3983ED4F3869577956795B795F795EF
:10228000E7959F5FC1F7FE2B880F911D9695879567
:0422900097F908951D
:10229400CF93DF93DC01F90168387105F1F05CF448
:1022A4006138710561F164387105A1F16038710517
:1022B40009F051C02FC0603C710509F441C0603F72
:1022C4007105F1F1603A710509F045C0C081D18111
:1022D400CE0102969183808325C0C081D181CE0135
:1022E400029691838083452B39F04881042E000C9B
:1022F400550B660B770B1CC0488150E029C0C08188
:10230400D181CE01049691838083488159816A8169
:102314007B810EC0C081D181CE01029691838083DE
:10232400452BA1F048815981052E000C660B770BD3
:102334004D935D936D937C93139781E090E00DC072
:10234400C081D181CE0102969183808348815981D5
:1023540060E070E0EDCF80E090E0DF91CF910895F0
:10236400CF93C82F6EEA0E94361965ED8C2F0E9418
:10237400361960E88C2F0E94361968EA8C2F0E9467
:1023840036196FE38C2F0E94361963ED8C2F0E944F
:10239400361960E08C2F0E94361960E48C2F0E945D
:1023A40036196DE88C2F0E94361964E18C2F0E9437
:1023B400361960E28C2F0E94361960E08C2F0E943F
:1023C400361960EA8C2F0E94361960EC8C2F0E941B
:1023D40036196AED8C2F0E94361962E18C2F0E9407
:1023E400361961E88C2F0E9436196FEC8C2F0E94ED
:1023F400361969ED8C2F0E94361961EF8C2F0E94DB
:1024040036196BED8C2F0E94361960E48C2F0E94D4
:10241400361964EA8C2F0E94361966EA8C2F0E94C2
:0E24240036196FEA8C2F0E943619CF91089559
:1024320011C00E947B1A38F00E94821A20F039F4EF
:102442009F3F19F426F40C94B31A0EF4E095E7FBBF
:102452000C94971AE92F0E94A11758F3BA17620732
:1024620073078407950720F079F4A6F50C94891A6E
:102472000EF4E0950B2EBA2FA02D0B01B90190019D
:102482000C01CA01A0011124FF27591B99F0593FE1
:1024920050F4503E68F11A16F040A22F232F342F29
:1024A2004427585FF3CF469537952795A795F04077
:1024B2005395C9F77EF41F16BA0B620B730B840B8C
:1024C200BAF09150A1F0FF0FBB1F661F771F881F44
:1024D200C2F70EC0BA0F621F731F841F48F487959C
:1024E20077956795B795F7959E3F08F0B0CF93958E
:0E24F200880F08F09927EE0F979587950895AB
:10250000A0E0B0E0E6E8F2E10C946218DC012801FA
:102510001696AD90BC901797F70180819181129625
:10252000ED91FC9113971896CD91DC911997219715
:10253000F7FF02C0E1E0F0E0CA0DDB1D188269017F
:10254000A1E0B0E08F01021B130B4C01F2E08F22DF
:102550009924052C000C66087708CE018A199B097E
:10256000CA15DB0519F1411551056105710589F0A1
:10257000CB01BA01A30192010E94C317CA01A62F81
:10258000B72F605D6A9341E0C41AD108A901BC016C
:10259000E4CF98012C0D3D1D121613064CF31C14AC
:1025A0001D0434F48114910419F702C080E090E016
:1025B000AB2B31F4F701208131812F7E31832083D1
:0A25C000CDB7DEB7E0E10C949918E6
:1025CA0020919C0530919D05231709F458C030E0ED
:1025DA00F901EC54FB4F40814B3349F445C0332792
:1025EA00F901EC54FB4F40814B3309F43FC02F5F94
:1025FA003F4F2F733078332334F421503109206C44
:10260A003F6F2F5F3F4F40919D054213E8CF80E017
:10261A000895E0919C05F0E0EC54FB4F4081209135
:10262A009C0530E02F5F3F4F2F733078332334F40B
:10263A0021503109206C3F6F2F5F3F4F20939C053B
:10264A004D30A9F04A3099F021E0250FFC01E50F41
:10265A00F11D40834B3331F4FC01E20FF11D10826E
:10266A0081E00895522F03C050E001C050E030913C
:10267A009C0520919D053213CCCF80E0089580E01F
:02268A000895B1
:10268C004F934FB74F935F936F937F938F939F931A
:10269C00AF93BF9340917B0550917C0560917D0574
:1026AC0070917E058091770590917805A0917905C0
:1026BC00B0917A05840F951FA61FB71F80937705DD
:1026CC0090937805A0937905B0937A05809177055E
:1026DC0090917805A0917905B0917A05A7FF1CC05F
:1026EC00809187059091880501969093AB0080931B
:1026FC00AA008091770590917805A0917905B09109
:10270C007A05AF77BB278093770590937805A093D4
:10271C007905B0937A0508C080918705909188055A
:10272C009093AB008093AA00BF91AF919F918F9132
:0E273C007F916F915F914F914FBF4F91189514
:10274A00EAE3F5E010821182128213821482158262
:10275A0016821782108611861286138662ED87EB1F
:10276A000E944A1960E880E10E944A1960E881E102
:10277A000E944A1960E882E10E944A1960E883E1EE
:10278A000E944A1960E884E10E944A1960E885E1DA
:10279A000E944A1960E886E10E944A1960E887E1C6
:1027AA000E944A196CE080E10E944A196CE081E1BA
:1027BA000E944A196CE082E10E944A196CE083E1A6
:1027CA000E944A196CE084E10E944A196CE085E192
:1027DA000E944A196CE086E10E944A196CE087E17E
:1027EA000E944A1985E90E942916682F6F7785E9A0
:0627FA000E944A19089537
:10280000A2E0B0E0E6E0F4E10C9464184C016B0146
:10281000FB012281338164807580808191819A835C
:102820008983A680B78037FD03C08D7F9A83898313
:10283000FA014081518162817381CE0101967C0150
:1028400008E010E09301C6010E948012298124FF54
:1028500006C00197F501E80FF91F20E320832981C5
:1028600023FF06C00197F501E80FF91F20E220833E
:1028700009811A81F6014085518541505109481B53
:10288000590BB501680F791F9301C4010E94F0151F
:102890009C01F4018081918190FF06C0F601828144
:1028A0009381821793070CF4C9012296EEE00C94F1
:0228B0009B1873
:1028B200A0E0B0E0EFE5F4E10C946A18AC01FA0193
:1028C20090814F5F5F4F9032D1F3292F092E000C78
:1028D200330B295031092530310588F39B3271F5CC
:1028E20000E010E0319602C000E010E020E030E0AD
:1028F200A901C1910C2E000CDD0BE097CA30D10565
:1029020078F4AAE0B0E00E94341A6E01DD0FEE08FE
:10291200FF089B01AC012C193D094E095F09E9CF63
:102922000115110541F466277727CB01621B730B52
:10293200840B950B08C0CA01B90105C09D32A1F6EE
:1029420001E010E0CFCFCDB7DEB7E8E00C94A118DC
:102952000F931F93CF93DF93DB01109719F48FEF3F
:102962009FEF3DC02D913C91119730FF25C01696E7
:102972004D915C91179714962D913C9115974217A2
:10298200530778F41296ED91FC9113978083129677
:102992002D913C9113972F5F3F4F13963C932E93AB
:1029A200129716962D913C9117972F5F3F4F1796CE
:1029B2003C932E93169713C01C96ED91FC911D9794
:1029C200309769F2EB01092F182F0995892B39F6F7
:1029D2008E819F8101969F838E83812F902FDF911D
:0829E200CF911F910F910895A0
:1029EA00A2E0B0E0EBEFF4E10C9464185C016B0137
:1029FA00FB012281338184809580808191819A8331
:102A0A0089836680778037FD03C08D7F9A838983A7
:102A1A00FA014081518162817381CE0101967C0164
:102A2A000AE010E09401C6010E94801209811A810D
:102A3A00F6014085518541505109481B590BB30194
:102A4A00680F791F9401C5010E94F0159C01F501D8
:102A5A008081918190FF06C0F6018281938182175D
:0E2A6A0093070CF4C9012296EEE00C949B1821
:102A7800FF920F931F93CF93DF93C0EEC20FC03620
:102A880070F5F02ED82F0E94E2180E94F9188D2FA9
:102A98000E94931980E40E94111AD0E08E01000F61
:102AA800111F0C0F1D1F000F111F0E5F1E4F2196C7
:102AB8009E01220F331FC20FD31FCC0FDD1FCE5F25
:102AC800DE4FF80181918F01F1E0FF1201C080957E
:102AD8000E94111A0C171D07A1F70E94A31ADF9173
:0A2AE800CF911F910F91FF90089508
:102AF200E89409C097FB3EF4909580957095619596
:102B02007F4F8F4F9F4F9923A9F0F92F96E9BB274B
:102B12009395F695879577956795B795F111F8CFC7
:102B2200FAF4BB0F11F460FF1BC06F5F7F4F8F4F32
:102B32009F4F16C0882311F096E911C0772321F028
:102B42009EE8872F762F05C0662371F096E8862FC0
:102B520070E060E02AF09A95660F771F881FDAF717
:0A2B6200880F9695879597F908955E
:102B6C00A0E1B0E0ECEBF5E10C946C18FB01BA01C0
:102B7C00AE014F5F5F4F7A0140E1D7011D924A953C
:102B8C00E9F742E051E05A8349839C838B83F7FF3A
:102B9C0009C08FE490E090930101809300018FEFC6
:102BAC009FEF14C0A9018C013197FE83ED83C701FF
:102BBC000E94CA184F8158852D813E8142175307B8
:102BCC0008F49A01F801E20FF31F10826096E6E018
:042BDC000C94A3189A
:102BE000A0E0B0E0E6EFF5E10C9466186C015B0143
:102BF0007A01E901480181E08822992400FD03C09F
:102C00004217530750F0A701B501C6010E944318AF
:102C1000EC16FD0610F0C70117C08E010E191F0932
:102C20000115110541F0B60180E290E00E94A9145F
:102C300001501109F5CF8114910429F4A701B501C0
:102C4000C6010E944318CE01CDB7DEB7ECE00C946C
:022C50009D18CD
:102C52001F93CF93DF9300D00F92CDB7DEB7182F1B
:102C62000E94F91880E60E9493198983898188312C
:102C7200B9F4812F0E94111A8A838A81883291F4D1
:102C82000E944A1A80E60E94D6198B838B81803477
:102C920059F40E941E1A89830E94A31A898105C0D1
:102CA2008FEF03C08FEF01C08FEF0F900F900F9047
:082CB200DF91CF911F910895FD
:102CBA00A2E8B0E0E3E6F6E10C9466185C014A018A
:102CCA007A836983C12CD12CE981FA818081882396
:102CDA00E9F07401860120E830E0AE014D5F5F4FF4
:102CEA00BE016F5F7F4FC5010E94C0008C0D9D1D04
:102CFA008C159D054CF48FE490E09093010180932C
:102D0A0000018FEF9FEF03C06C01DECFC601CE57E3
:082D1A00DF4FECE00C949D1862
:102D22001F93CF93DF93C82F162F61E20E943619AB
:102D320060E08C2F0E9436196FE78C2F0E943619A3
:102D420062E28C2F0E94361960E08C2F0E943619A5
:102D520067E08C2F0E9436190E94F9188C2F0E946E
:102D6200931980E40E94111AC0E0D4E0812F0E94DE
:102D7200111A2197D9F70E94A31ADF91CF911F91BF
:022D82000895B2
:102D84000E94A91788F09F5798F0B92F9927B75137
:102D9400B0F0E1F0660F771F881F991F1AF0BA95FB
:102DA400C9F714C0B13091F00E94891AB1E00895B6
:102DB4000C94891A672F782F8827B85F39F0B93FA8
:102DC400CCF3869577956795B395D9F73EF49095AE
:0E2DD4008095709561957F4F8F4F9F4F0895AA
:102DE200DC01ED91FC91119780818A3221F080E023
:102DF20090E03AE00EC03196ED93FC93DB01ED9149
:102E0200FC911197CF0102968D939C9380819181C1
:102E12000895ED91FC911197208120532A3068F496
:102E2200389FA001399F500D1124CA01820F911DB4
:0C2E320031961196FC93EE93ECCF0895BE
:102E3E00CF92DF92EF92FF920F931F93CF93DF9378
:102E4E00D82EC62F142F7901C02EF90120812223EE
:102E5E0099F0D0E00C2D412F6C2F8D2D0E943C153A
:102E6E00CA5FC93710F01F5FC0E0DF5FF701ED0FDB
:102E7E00F11D20812111EECFDF91CF911F910F9186
:0A2E8E00FF90EF90DF90CF900895C1
:102E98002F932FB72F933F938F939F93EF93FF9386
:102EA8003091CE0080919D0590E001968F739078C7
:102EB800992324F40197806C9F6F019620919C05BB
:102EC800281741F0E0919D05F0E0EC54FB4F30836A
:102ED80080939D05FF91EF919F918F913F912F9145
:062EE8002FBF2F91189589
:102EEE00A0E0B0E0EDE7F7E10C9468187C01FB017F
:102EFE00EA01C901A280B380C480D580008111810E
:102F0E00209711F4CEE4D5E0009719F4CE010E947B
:102F1E00031AB7FC04C0A816B90608F4C501960139
:102F2E00AC01BE01C7010E94F015CDB7DEB7EAE0D5
:042F3E000C949F1838
:102F420057FD9058440F551F59F05F3F71F0479558
:102F5200880F97FB991F61F09F3F79F0879508953D
:102F6200121613061406551FF2CF4695F1DF08C05C
:102F7200161617061806991FF1CF86957105610579
:042F82000894089512
:102F8600A1E21A2EAA1BBB1BFD010DC0AA1FBB1F67
:102F9600EE1FFF1FA217B307E407F50720F0A21BD9
:102FA600B30BE40BF50B661F771F881F991F1A9446
:102FB60069F760957095809590959B01AC01BD0170
:042FC600CF0108959A
:102FCA00CF93DF93EC0190E0E92FF0E0EE0FFF1FC3
:102FDA00EC5EFA4F8081811102C081810EC0A88106
:102FEA00B9812C91821305C091811196B983A88366
:102FFA0001C09F5F9B3040F3892FDF91CF910895E5
:10300A000E94291A0C98149A87B18F7887B98BB1C4
:10301A0080678BB910929B054C9B03C081E080931B
:10302A009B054D9B05C080919B05826080939B0503
:0E303A0089B186958695837080939B050895D5
:10304800CF93DF9341155105A9F0DC01FB01EF0196
:103058008D91882351F09191992339F04130510590
:1030680021F041505109891791F390E02881821B82
:0E307800910902C080E090E0DF91CF910895B1
:10308600A0E0B0E0E9E4F8E10C946A186C01EB0109
:103096008A017B01E40EF51ECE15DF0541F089910C
:1030A600B601082E000C990B0E94A914F5CFC80191
:0A30B600CDB7DEB7E8E00C94A118D6
:1030C0002F923F924F925F926F927F928F929F9238
:1030D000AF92BF92CF92DF92EF92FF920F931F9326
:1030E000CF93DF93CDB7DEB7CA1BDB0B0FB6F894D7
:0830F000DEBF0FBECDBF099445
:1030F80090919405992369F02091930528130BC0AA
:10310800913059F0923059F421110BC080918F05FC
:10311800089580E0089580E0089581E0089580E0B2
:06312800089580E0089507
:10312E002A88398848885F846E847D848C849B8449
:10313E00AA84B984C884DF80EE80FD800C811B8157
:10314E00AA81B981CE0FD11D0FB6F894DEBF0FBE86
:06315E00CDBFED01089554
:10316400ECE7F0E09081907F8770892B808385E87D
:103174008A95F1F70000EAE7F0E0808180648083BB
:10318400808186FDFDCF809178009091790008952B
:10319400A2E0B0E0E0EDF8E10C946E188C015A83E3
:1031A4004983AE014F5F5F4F0E945D16F801208195
:1031B40024FF02C08FEF9FEF2296E4E00C94A51841
:1031C400CF93DF93D82FC62F60EB640F0E9436197C
:1031D4006C2F6F708D2F0E9436196C2F62956F7053
:0E31E400605F8D2F0E943619DF91CF91089504
:1031F200CF93DF930F92CDB7DEB7198284EA809323
:10320200BC00ECEBF0E080818823ECF78091B90000
:0A32120089830F90DF91CF9108959A
:10321C00CF93DF93D82FC62F0E94F91880E60E9417
:10322C0093198D2F0E94111A8C2F0E94111A0E9433
:08323C00A31ADF91CF91089560
:1032440087B1836087B988B18C7F88B987B18C7F57
:1032540087B91092B90082E08093B800ECEBF0E0FB
:083264008081846080830895DD
:10326C00CF93DF93D82FC62F0E94F9188D2F0E9471
:10327C00931980E00E94111A8C2F0E94111A0E943F
:08328C00A31ADF91CF91089510
:10329400CF93DF93D82FC62F0E94F91880E60E949F
:1032A40093198D2F0E94111A8C2F0E94111A0E94BB
:0832B400A31ADF91CF910895E8
:1032BC00A0E0B0E0E4E6F9E10C947018AE01475FD1
:1032CC005F4F6F8178858D819E810E94901AE2E01C
:0432DC000C94A7188F
:1032E000A0E0B0E0E6E7F9E10C947018AE01475FAA
:1032F0005F4F6F8178858D819E810E94901AE2E0F8
:043300000C94A7186A
:10330400F89490938805809387056F777727409387
:103314007B0550937C0560937D0570937E057894BE
:0233240008950A
:10332600880F8093BB0084E88093BC00ECEBF0E050
:1033360080818823ECF7E9EBF0E0808180818E7F45
:023346000895E8
:103348001092CD008CE08093CC00E8ECF0E0808116
:103358008260808388E98093C90086E08093CA00F0
:023368000895C6
:10336A00092E0394000C11F4882352F0BB0F40F489
:10337A00BF2B11F460FF04C06F5F7F4F8F4F9F4FC9
:02338A000895A4
:10338C00DB018F939F930E94341ABF91AF91A29F40
:10339C00800D911DA39F900DB29F900D1124089547
:1033AC00880F81608093BB0084E88093BC00ECEBB9
:0E33BC00F0E080818823ECF78091B90008953D
:1033CA00CF93DF93EC018881882331F021960E9404
:0E33DA00641A89918111FBCFDF91CF91089584
:1033E800A29FB001B39FC001A39F700D811D11243E
:0E33F800911DB29F700D811D1124911D08952D
:10340600FC01AF014F5F5F4F2081222311F0FA01CB
:0C341600F8CF9F01281B390BC901089555
:103422008093BB0084E88093BC00ECEBF0E08081E9
:0A3432008823ECF78091B90008959B
:10343C0084E88093BC00ECEBF0E080818823ECF70F
:06344C008091BB00089511
:10345200ECE7F0E0808180648083EAE7F0E080813D
:06346200876880830895D5
:103468000E94F419A59F900DB49F900DA49F800D04
:06347800911D11240895CE
:10347E00EC010E94BB1A0E94BA1ACE010E94BC1A1D
:06348E00CE010E94B81AF5
:1034940084EA8093BC00ECEBF0E080818823ECF7B5
:0234A400089589
:1034A6009C01215631092A31310510F48F7599276F
:0234B600089577
:1034B80061E08627682F619583E00E944A19089584
:1034C800E8ECF0E0908195FFFDCF8093CE00089561
:1034D8009C01215431092A31310508F4806208958C
:0E34E8005058BB27AA270E9419120C94B51940
:0E34F60000240A9416161706180609060895F3
:0E35040000240A9412161306140605060895F4
:0E351200E894BB2766277727CB0197F9089529
:0E3520009A01AB016FEF7FE70E94B615089588
:0C352E0097F99F6780E870E060E0089566
:0C353A00EE0FFF1F0590F491E02D0994A6
:0835460084E98093BC000895A4
:08354E0060E00E94911608954F
:083556000E9405100C94B51948
:08355E000E94E0100C94B51965
:063566009FEF80EC0895C8
:04356C000C940000BB
:043570000E94BE00F7
:023574000895B8
:023576000895B6
:023578000895B4
:10357A000000000000000000002F0000000007000B
:10358A000700147F147F1400242A7F2A12002313B1
:10359A000864620036495522500000050300000005
:1035AA00001C224100000041221C000014083E08B1
:1035BA00140008083E0808000000503000001010EF
:1035CA0010101000006060000000201008040200C3
:1035DA003E5149453E0000427F4000004261514948
:1035EA0046002141454B31001814127F100027452F
:1035FA00454539003C4A4949300001710905030033
:10360A00364949493600064949291E00003636001E
:10361A00000000563600000008142241000014146D
:10362A001414140000412214080002015109060072
:10363A00324959513E007E1111117E007F49494994
:10364A0036003E41414122007F4141221C007F4910
:10365A00494941007F09090901003E4149497A0067
:10366A007F0808087F0000417F4100002040413F59
:10367A0001007F08142241007F40404040007F0241
:10368A000C027F007F0408107F003E4141413E004A
:10369A007F09090906003E4151215E007F09192967
:1036AA00460046494949310001017F0101003F4076
:1036BA0040403F001F2040201F003F4038403F004D
:1036CA00631408146300070870080700615149452C
:1036DA004300007F4141000002040810200000411D
:1036EA00417F0000040201020400404040404000C3
:1036FA000001020400002054545478007F484444D6
:10370A003800384444442000384444487F00385440
:10371A0054541800087E090102000C5252523E000D
:10372A007F080404780000447D4000002080443D66
:10373A0000007F102844000000417F4000007C0404
:10374A00180478007C08040478003844444438009B
:10375A007C1414140800081414187C007C0804044F
:10376A000800485454542000043F444020003C4080
:10377A0040207C001C2040201C003C4030403C0083
:10378A004428102844000C5050503C004464544CC7
:10379A00440000083641000000007F00000000419C
:0A37AA00360800001008081008009F
:1037B4002530326C752E2530336C752E2530336CE4
:1037C4007520487A00525800545800555345520009
:1037D40055534220004D6F64653A205B25735D208C
:1037E400202020004374726C3A205B25735D2020F6
:1037F4000043757272656E7420467265713A2020BA
:103804002020200053454C4543540049444C452056
:1038140020004544495420200053746174653A20C3
:10382400257300202020202020202020202020205C
:10383400202020004A4F593A205550004A4F593A07
:1038440020444F574E004A4F593A204C45465400A5
:103854004A4F593A205249474854004A4F593A204E
:103864005052455353004A4F593A20484F4C440054
:10387400454E433A204357203E3E00454E433A20AE
:103884003C3C2043435700454E433A205052455355
:1038940053005045523A20257500545825643B0086
:1038A40046410046412530396C753B00464200468E
:1038B400422530396C753B0049463B00494630305F
:1038C400312530396C752B30303030303043303066
:1038D4003030303B0049443B004944303635303BBE
:1038E400004D44303B004D4430433B005348303B93
:1038F400005348303030303B004E41303B004E41A5
:1039040030303B004149004149303B00464C525461
:10391400525820526164696F20496E697469616C00
:08392400697A6564210D0A00B7
:10392C008096980040420F00A086010010270000EE
:10393C00E8030000640000000A0000000100000021
:10394C0068076C094C836A9074A07AC00080688800
:06395C0000846C82008172
:1039620000FF0100010000FFFF0000010001FF0055
:08397200000103040507080928
:07397A00286E756C6C29003A
:06398100286E696C2900AC
:04398700809FD50048
:04398B00809FD50044
:01398F000136
:013990000135
:013991000134
:013992000331
:00000001FF
