:100000000C948F000C9421150C9421150C9421153F
:100010000C9421150C9421150C9421150C94211588
:100020000C9421150C9421150C9421150C94211578
:100030000C9421150C9421150C9421150C94211568
:100040000C9421150C9421150C9421150C94211558
:100050000C94EA100C9421150C9421150C94211584
:100060000C9421150C9421150C9421150C94211538
:100070000C9421150C9421150C9421150C94211528
:100080000C9421150C9421150C9421150C94211518
:100090000C9421150C9421150C9421150C94211508
:1000A0000C9421150C9421150C9421150C942115F8
:1000B0000C9421150C9421150C9421150C942115E8
:1000C0000C9421150C9421150C942115050A0E0A87
:1000D000170A200A290A320A3B0A440A01000102CF
:1000E000800102045B002A50045B047B80047B04D3
:1000F000A1002DA904A104AD8004AD04C6002DCF3C
:1001000004C604C88004C804CA002DE804CA04CF89
:100110008004CF04D0002DEA04D004D28000112442
:100120001FBECFEFD8E0DEBFCDBFECEDF0E041E089
:1001300017C0B591A59135912591059107FD0CC08A
:1001400095918591EF01F92FE82F05900D92A21757
:10015000B307D9F7FE0104C01D92A217B307E1F758
:10016000ED31F40731F70E9490040C94A514F89433
:02017000FFCFBF
:10017200AEE0B0E0EFEBF0E00C94DA124C016B0170
:100182001A8219828FEF9FEF9C838B831E821D82BE
:1001920058874F833A872987A12CB12CD6016D90BD
:1001A2007C90F301EA0DFB1D808181110FC0D60105
:1001B200ED93FC938081853209F0D3C13F01BFEFFB
:1001C2006B1A7B0AF6017182608219C0853279F35B
:1001D200B401082E000C990B0E94360F4FEFA41A9F
:1001E200B40ADCCF8C32ACF08D32F9F489819A8179
:1001F20081609A8389833196D601ED93FC93D6016F
:10020200ED91FC9180818B3269F789819A818460BA
:10021200F0CF803221F489819A818860EACF8332DB
:1002220051F489819A818061E4CF803321F48981FC
:100232009A818260DECFB701C6010E94B2119E830D
:100242008D8397FF0BC029813A81B1E02B273A8336
:1002520029839195819591099E838D8389819A81C4
:1002620080FF03C08D7F9A838983D601ED91FC9133
:10027200119780818E3249F43196ED93FC93B70148
:10028200C6010E94B2119C838B83C6010E947B121D
:10029200582ED601ED91FC918081082E000C990B0D
:1002A2000E94D214893609F443C084F4833609F4D7
:1002B20002C134F4853209F427C18136E1F030C13C
:1002C2008436B1F188360CF4D9C02AC1803709F4DA
:1002D2009AC03CF48E3609F4BCC08F3609F461C072
:1002E2001FC1853709F440C0883709F476C08337C7
:1002F20009F016C1F3C0652D70E0A701CE010B967F
:100302000E940000892B09F426C1D601ED91FC91CF
:100312001197CF0101968D939C932081AE01455F89
:100322005F4FBE016F5F7F4FC4010E94000010C18A
:10033200652D70E0970141E050E0CE010B960E94DE
:10034200880C892B09F407C1F601808191810196FD
:1003520091838083AE01455F5F4FBE016F5F7F4F28
:10036200C4010E94CD0AF4C0652D70E0970140E0FF
:1003720050E0CE010B960E94880C892B09F4EBC049
:10038200D6018D919C91119701968D939C93AE010C
:10039200455F5F4FBE016F5F7F4FC4010E94820FB6
:1003A200D7C0652D70E0970140E050E0CE010B967A
:1003B2000E94880C892B09F4CEC0F60180819181BC
:1003C200019691838083AE01455F5F4FBE016F5FEF
:1003D2007F4FC4010E94DD0EBBC0652D70E0970106
:1003E20040E050E0CE010B960E94880C892B09F464
:1003F200B2C0D601ED91FC911197CF0101968D9378
:100402009C9320811CC0970140E050E060EF70E0B7
:10041200CE010B960E94880C892B09F49CC0F60130
:10042200808191810196918380838B859C85892B24
:1004320029F420E030E04CEB54E084C028E7AE0120
:10044200455F5F4FBE016F5F7F4FC4010E94590736
:100452007FC0A501400F511F652D70E09701CE01AD
:100462000B960E940000892B09F475C0D6018D916C
:100472009C91119701968D939C9373C0652D70E0AA
:10048200A701CE010B960E940000892B09F463C0DC
:10049200D601ED91FC911197CF0101968D939C931A
:1004A2002081AE01455F5F4FBE016F5F7F4FC40188
:1004B2000E9400004DC0B0E85B124DC0F601808181
:1004C2009181019691838083D701ED91FC911197DF
:1004D200CF0102968D939C93808120C0B0E85B127D
:1004E2003AC0F60180819181019691838083D70180
:1004F200ED91FC911197CF0102968D939C934081CF
:10050200518120E030E01EC0B0E85B1224C0F60149
:10051200208131812F5F3F4F318320838B870DC034
:1005220085E28B87D6016D927C921A8219821E8295
:100532001D828FEF9FEF9C838B8321E030E0AE0121
:10054200455F5F4FBE016F5F7F4FC4010E940D1276
:100552008A0D9B1D07C0F6018081918101969183CE
:0C0562008083C5012E96EFE00C9411136D
:10056E003F924F925F926F927F928F929F92AF9235
:10057E00BF92CF92DF92EF92FF920F931F93CF9382
:10058E00DF93CDB7DEB764970FB6F894DEBF0FBE1C
:10059E00CDBF633008F0A5C129013A0194E0491A94
:1005AE00510861087108EDEF4E16E7E05E06610432
:1005BE00710408F096C125013601F1E04F1A510879
:1005CE00610871089FEF491659069FE0690671048C
:1005DE0008F087C1E114F104E0E10E07110508F0FF
:1005EE0080C1250136014701580169017A01162F94
:1005FE00082F81149104A104B10431F5F4E0CF1A4F
:10060E00D108E108FEEFFF0ACC0CDD1CEE1CFF1C2E
:10061E00CC0CDD1CEE1CFF1CCC0CDD1CEE1CFF1CE0
:10062E00CC0CDD1CEE1CFF1CCC0CDD1CEE1CFF1CD0
:10063E00CC0CDD1CEE1CFF1CCC0CDD1CEE1CFF1CC0
:10064E0040E050E0BA01DBC021E0421651046104E3
:10065E00710409F048C0D501C4010497A109BE4F29
:10066E00C80ED91EEA1EFB1ECC0CDD1CEE1CFF1C98
:10067E00CC0CDD1CEE1CFF1CCC0CDD1CEE1CFF1C80
:10068E00CC0CDD1CEE1CFF1CCC0CDD1CEE1CFF1C70
:10069E00CC0CDD1CEE1CFF1CCC0CDD1CEE1CFF1C60
:1006AE00B501A4014150510961097E4F440F551FF8
:1006BE00661F771F440F551F661F771F440F551F68
:1006CE00661F771F440F551F661F771F440F551F58
:1006DE00661F771F440F551F661F771F440F551F48
:1006EE00661F771F8CC0C301B2010E940610698776
:1006FE007A878B879C87C501B4010E9406102985D5
:10070E003A854B855C850E94161520E030E040E06E
:10071E0053E40E941A150E94590A6D877E878F87AF
:10072E00988BD701C601880F991FAA1FBB1F880F70
:10073E00991FAA1FBB1F880F991FAA1FBB1F880FC7
:10074E00991FAA1FBB1F880F991FAA1FBB1F880FB7
:10075E00991FAA1FBB1FBC01CD01660F771F881FF3
:10076E00991F0E9406102D853E854F8558890E943F
:10077E00DB1420E030E040E054E40E94DA140E94E2
:10078E0083116B017C01D501C401880F991FAA1F2B
:10079E00BB1F880F991FAA1FBB1F880F991FAA1F67
:1007AE00BB1F880F991FAA1FBB1F880F991FAA1F57
:1007BE00BB1F880F991FAA1FBB1FBC01CD01660F5F
:1007CE00771F881F991F0E940610698B7A8B8B8B5F
:1007DE009C8B2D853E854F85588969857A858B85BD
:1007EE009C850E941A159B01AC0169897A898B89B7
:1007FE009C890E94DA140E948311AB01BC01113056
:10080E0049F018F0123059F00FC00F2EFAE23F2EB9
:10081E00F02D0BC00F2EF2E33F2EF02D06C00F2E43
:10082E00FAE33F2EF02D01C0312C59824A82D701B6
:10083E00C601A37024E0129FF0011124EF55FB4F67
:10084E002081822F8A2B8B83DC82CD82D301C20141
:10085E0088279927AF70BB27072E7CE0B695A79502
:10086E00979587957A95D1F7702D6A017B01EFE008
:10087E00EE228E298E835F8348870E94701380E656
:10088E000E94F913832D0E947714CE0101967C01EC
:10089E006E0199E0C90ED11CF70181917F010E9472
:1008AE007714EC14FD04C1F70E940E15013011F4FB
:1008BE006FE201C06FE089288A288B2809F46064F2
:1008CE00113041F018F0123049F00BC080E10E9457
:1008DE00C11307C081E10E94C11303C082E10E94CF
:1008EE00C11364960FB6F894DEBF0FBECDBFDF9175
:1008FE00CF911F910F91FF90EF90DF90CF90BF900F
:10090E00AF909F908F907F906F905F904F903F90A1
:02091E0008953A
:100920000E9499130E949B120E940A14789484E1F9
:1009300094E00E944B140E94820E6091C204709158
:10094000C3048091C4049091C5040E94470881E0CB
:100950000E94C2148CE30E94F00C8CE30E941215DA
:100960008DE30E94F00C8DE30E941215249A2C9ABC
:100970000E943F0B80E00E94B809D0E010E068942C
:10098000DD24D1F8EE24E394F12C0F2E812CF2E13A
:100990009F2EFAE7AF2EB12CF02D0E94230EC82F08
:1009A0008091D004882301F180E394E00E944B14ED
:1009B0008BE594E00E944B1487E394E00E944B1473
:1009C000012F2FEA33E046E0612F8CE30E94E01113
:1009D00001E02BE534E046E0612F8CE30E94E0115A
:1009E0000E94091591E001C0912F8091CD048130C2
:1009F00079F018F0823091F1FCC08FEF8C0F8430C9
:100A000008F015C181E08093CD041093CC0417C188
:100A1000C13049F48091CC04882309F410C181507D
:100A20008093CC040CC1C23049F48091CC04823054
:100A300008F005C18F5F8093CC0401C1C53009F077
:100A4000F6C0D092CD0481E08093C9048093C8049D
:100A5000F092C704E092C60491E0E9C08091CC0412
:100A6000823028F52AEF2C0F223008F0F9C08111CE
:100A70000CC081E09091CB049111812F8093CB0425
:100A8000811102C02C9A01C02C988091CC04813035
:100A900031F49091CA049111812F8093CA0481E0AE
:100AA0008093C8041092C7041092C6049BC0823081
:100AB00009F0D6C0C33079F48091C904882319F0B5
:100AC00081508093C90481E08093C8041092C704C8
:100AD0001092C604CFC0C43079F48091C904873025
:100AE00018F48F5F8093C90481E08093C80410924A
:100AF000C7041092C604BEC08AEF8C0F823008F083
:100B0000AFC0E091C90424E0E29FF0011124E55C4C
:100B1000FB4F4081518162817381C63049F58091DC
:100B2000C2049091C304A091C404B091C504480FBD
:100B3000591F6A1F7B1F413084E2580784EF680702
:100B4000710548F44093C2045093C3046093C404F5
:100B50007093C50436C080E094E2A4EFB0E08093C7
:100B6000C2049093C304A093C404B093C50429C0E5
:100B70008091C2049091C304A091C404B091C504B3
:100B80002A013B0122E1520E2AE7621E711C8415E4
:100B90009505A605B70568F0841B950BA60BB70B4A
:100BA0008093C2049093C304A093C404B093C5047B
:100BB00008C08092C2049092C304A092C404B09270
:100BC000C5046091C2047091C3048091C4049091E3
:100BD000C5040E94470881E08093C8041092C704AE
:100BE0001092C604C83009F045C081E08093CD045E
:100BF00026C08091CD048230D1F401C091E02091D3
:100C0000C6043091C7042F5F3F4F3093C704209331
:100C1000C6042035310558F09091C80481E0892739
:100C20008093C8041092C7041092C60408C09111A2
:100C300006C0C11118C0DF5FD233C0F40AC00E94E1
:100C40003F0BCC2329F08C2F0E94B809D0E001C0C3
:100C5000D0E083EF91E00197F1F700C000009DCE56
:100C6000C83069F6C2CF0E943F0BEDCF0E943F0B08
:0E0C7000D0E0EFCF8091CD04823009F7BFCFE6
:100C7E004F925F926F927F928F929F92AF92BF929E
:100C8E00CF92DF92EF92FF920F931F93CF93DF934A
:100C9E00CDB7DEB72A970FB6F894DEBF0FBECDBF25
:100CAE0089876A8729013A0147015801862F8F509B
:100CBE008C3408F0E0C0D801C7010197A109B10931
:100CCE008F3F9F4FAF40B10508F0D5C0411451047E
:100CDE0080E16806710408F0CEC04114510461042D
:100CEE00710479F4C62ED12C24E0C21AD108D69400
:100CFE00DC2CCC24D794C7940D2C000CEE08FF08E6
:100D0E0071C0C801B7010E94061069837A838B8374
:100D1E009C83C301B2010E94061029813A814B8146
:100D2E005C810E94161520E030E040E053E40E9402
:100D3E001A150E94590A6D837E838F8398879A8530
:100D4E0080E8989FB0011124072E000C880B990B98
:100D5E000E9408102D813E814F8158850E94DB1420
:100D6E0020E030E040E054E40E94DA140E94831147
:100D7E006B017C01D301C201880F991FAA1FBB1FF3
:100D8E00880F991FAA1FBB1F880F991FAA1FBB1F71
:100D9E00880F991FAA1FBB1F880F991FAA1FBB1F61
:100DAE00880F991FAA1FBB1FBC01CD01660F771FAD
:100DBE00881F991F0E9406102B013C012D813E8138
:100DCE004F81588569817A818B819C810E941A1589
:100DDE009B01AC01C301B2010E94DA140E9483117F
:100DEE002B013C012985222319F082E2898302C05E
:100DFE009AE19983692D89810E94C113682D898199
:100E0E008F5F0E94C113D701C60188279927A3704F
:100E1E00BB27BD018827992789818E5F0E94C11348
:100E2E006D2D89818D5F0E94C1136C2D89818C5F20
:100E3E000E94C113882499242FE0A222BB24072EDE
:100E4E007CE0B694A794979487947A95D1F7702DF9
:100E5E00D301C201AF70682D6A2B89818B5F0E940E
:100E6E00C113652D89818A5F0E94C113642D89810A
:100E7E00895F0E94C1132A960FB6F894DEBF0FBE8B
:100E8E00CDBFDF91CF911F910F91FF90EF90DF902B
:100E9E00CF90BF90AF909F908F907F906F905F900C
:040EAE004F900895C4
:100EB200AFE0B0E0EFE5F7E00C94D7121C016B0154
:100EC2005A8349832B83FB0182819381848095809D
:100ED20000811181A680B78097FD02C00D7F02C0FC
:100EE20081E090E0E981FA814080518062807380E4
:100EF2009801207133273D832C83740104FF08C0BD
:100F0200411451046104710419F032E0E31AF1084A
:100F1200F801E870FF27FF83EE8303FF03C0F1E0CF
:100F2200EF1AF108F6010084F185E02D3197FF8771
:100F3200EE87EA0DFB1D10829C012E193F093987AD
:100F42002887C801827099279B878A87EB818E2F19
:100F5200EE0F990B9C01215431093D872C872E8578
:100F62003F852230310530F48C819D81892B09F037
:100F720042C05CC0411451046104710461F18E8568
:100F82009F8501979F878E87C2018F7099278A302C
:100F9200910514F4C09602C0895A9F4FEC85FD85D5
:100FA2007A9748F49C012062215631092A31310591
:100FB20010F40E94B914EE85FF85EA0DFB1D8083B3
:100FC200F1E0EF1AF10884E076946794579447941D
:100FD2008A95D1F7C4CF888599858E0D9F1D1816E5
:100FE20019066CF21E141F040CF0BECFEA85FB85B5
:100FF200EF2B29F6B9CFE981FA8180819181A28113
:10100200B381892B8A2B8B2B89F0EE85FF85EA0D24
:10101200FB1D31972B8120838E859F8502979F87A9
:101022008E87FC01EA0DFB1D80E38083EE81FF8148
:10103200EF2B59F02E853F85215031093F872E87AE
:10104200F901EA0DFB1D80E28083F601408551859E
:10105200415051092E853F85421B530BB9016A0D40
:101062007B1D9401C1010E947D109C01F1018081D0
:10107200918190FF06C0F6018281938182179307C6
:0C1082000CF4C9012F96E2E10C940E134F
:10108E004F925F926F927F928F929F92AF92BF928A
:10109E00CF92DF92EF92FF920F931F936B017C0121
:1010AE0060E076E483EC93E2A70196010E94591268
:1010BE0029013A01DA01C90183709927AA27BB27B2
:1010CE00892B8A2B8B2B79F08FEF481A580A680AD6
:1010DE00780AD301C20183709927AA27BB27892BCF
:1010EE008A2B8B2B89F7A7019601C301B2010E94AF
:1010FE002C14AB01BC014115E6E45E07E3EC6E0770
:10110E00E3E27E0760F5CC0CDD1CEE1CFF1CCC0C64
:10111E00DD1CEE1CFF1C4C0D5D1D6E1D7F1D8824FD
:10112E00992454018C189D08AE08BF0802C0AC016A
:10113E00BD0184E0480E511C611C711CDB01CA010B
:10114E008C0D9D1DAE1DBF1D8C019D01080D191D21
:10115E002A1D3B1D01151644234C334240F3CB018F
:10116E00BA0120E438E74DE751E00E945912D22E21
:10117E0029E130E040E050E00E94591210E4E12EE7
:10118E0012E4F12E0FE010E06D2D80E00E943F067C
:10119E00A12CB12C6501A394E12CF12C8701A301A4
:1011AE00920160E080E00E94B702A301920161E02B
:1011BE0080E00E94B7026FE480E10E9485136FE425
:1011CE0081E10E94851360E882E10E9485136CEF35
:1011DE0083E00E94851360E085EA0E948513642DEA
:1011EE0086EA0E94851360E281EB0E9485131F91AF
:1011FE000F91FF90EF90DF90CF90BF90AF909F90A8
:0C120E008F907F906F905F904F9008953C
:10121A004F925F926F927F928F929F92AF92BF92FC
:10122A00CF92DF92EF92FF920F931F93CF93DF93A8
:10123A00CDB7DEB764970FB6F894DEBF0FBECDBF49
:10124A00E82E4090C2045090C3046090C404709089
:10125A00C5040F2EF8EE8F2EF3E09F2EA12CB12C91
:10126A00F02DC301B201A50194010E9459129F9366
:10127A008F937F936F93C301B20120E432E44FE06E
:10128A0050E00E945912122F032FF42ED52EA501D9
:10129A0094010E9459125F934F933F932F93DF92C9
:1012AA00FF920F931F938CE393E09F938F93CE014A
:1012BA0001969F938F930E94E71329810FB6F894A2
:1012CA00DEBF0FBECDBF2223B9F110E0F12CD12C25
:1012DA00CC24C3948091CD04813039F40C2D8091B3
:1012EA00CC048230C1F00D2D16C0823079F4809181
:1012FA00CC04823069F4E091C904F0E0E355FB4F75
:10130A008081811307C00091C80405C00D2D03C058
:10131A000D2D01C00D2D4E2D6F2D8DE30E94C90F8D
:10132A0096E0F90E1F5FE1E0F0E0EC0FFD1FE10F20
:10133A00F11D20812111CECF64960FB6F894DEBF3D
:10134A000FBECDBFDF91CF911F910F91FF90EF900C
:10135A00DF90CF90BF90AF909F908F907F906F90CB
:06136A005F904F90089512
:10137000EF92FF920F931F93CF93DF93CDB7DEB71A
:1013800064970FB6F894DEBF0FBECDBF182F8091C3
:10139000CD04813029F0823031F48EE993E005C02C
:1013A00080E993E002C087E993E09F938F9385EAF9
:1013B00093E09F938F93CE0101967C019F938F932F
:1013C0000E94D51300E0970140E060E08CE30E94AA
:1013D000E0110F900F900F900F900F900F9011232E
:1013E00009F45AC02FEA33E043E060E08CE30E9446
:1013F000E011812F90E0FC013197E830F10508F011
:101400004BC0EA59FF4F0C94031501E020EC33E088
:1014100043E060E08CE30E94E0113EC001E028EC74
:1014200033E043E060E08CE30E94E01135C001E06E
:1014300022ED33E043E060E08CE30E94E0112CC039
:1014400001E02CED33E043E060E08CE30E94E0112A
:1014500023C001E027EE33E043E060E08CE30E942C
:10146000E0111AC001E022EF33E043E060E08CE3DA
:101470000E94E01111C001E02DEF33E043E060E095
:101480008CE30E94E01108C001E029E034E043E071
:1014900060E08CE30E94E01164960FB6F894DEBF22
:1014A0000FBECDBFDF91CF911F910F91FF90EF90B5
:0214B00008959D
:1014B2008F929F92AF92BF92CF92DF92EF92FF9262
:1014C2000F931F938B019C011127032F000F111FF4
:1014D20027FB00F9222733271127A8014F5751096B
:1014E200473151050CF045C057FD2DC00FEF1FEFDE
:1014F2002FE730E004C035952795179507954A9553
:10150200D2F74801590186229722A822B9228928B6
:101512008A288B2871F197FF07C0DC01CB01800F6D
:10152200911FA21FB31F02C0DC01CB0100951095D1
:101532002095309580239123A223B323482F392F5E
:101542002A2F5B2F1AC097FF0FC08B019C01000F3F
:10155200111F221F331F012B022B032B51F040E0DE
:1015620030E020E85FEB09C040E030E020E050E0EE
:1015720004C0462F372F282F592F642F732F822F05
:10158200952F1F910F91FF90EF90DF90CF90BF901A
:08159200AF909F908F90089527
:10159A00A2E0B0E0E3EDFAE00C94D7123C016B0153
:1015AA00FB0122813381A480B580808191819A8355
:1015BA00898386809780FA01208031804280538017
:1015CA00B201A10157FE07C044275527BA014219A3
:1015DA0053096409750937FD03C08D7F9A8389838E
:1015EA00950157FC05C0898182FD02C083FF02C0B4
:1015FA0021503109CE0101967C010AE010E0C601B2
:10160A000E94BE0D57FC03C0298122FF0AC0019720
:10161A00F401E80FF91F57FC02C02BE209C02DE2C2
:10162A0007C023FF06C00197F401E80FF91F20E263
:10163A00208309811A81F60140855185415051095B
:10164A00481B590BB401680F791F9501C3010E9409
:10165A007D109C01F3018081918190FF06C0F60103
:10166A0082819381821793070CF4C9012296E2E1E1
:04167A000C940E13AB
:10167E00EF92FF920F93CF93DF93CDB7DEB76497C0
:10168E000FB6F894DEBF0FBECDBF8091CB0488237A
:10169E0019F084E593E002C081E593E09F938F9368
:1016AE0081E693E09F938F93CE0101967C019F93E9
:1016BE008F930E94D51380E00E94F312082F97019A
:1016CE0040E060E08DE30E94E0110F900F900F90CC
:1016DE000F900F900F908091CA04882319F08CE51B
:1016EE0093E002C087E593E09F938F9380E793E0AA
:1016FE009F938F93CE0101967C019F938F930E94AF
:10170E00D51381E00E94F312082F970142E060E0AA
:10171E008DE30E94E01100E02DE733E044E060E04D
:10172E008DE30E94E01186E00E940D090F900F904C
:10173E000F900F900F900F9064960FB6F894DEBF37
:10174E000FBECDBFDF91CF910F91FF90EF90089517
:10175E0010C00E94E81458F00E94E11440F029F4E1
:10176E005F3F29F00C94FD1451110C94F0140C945D
:10177E001E150E94371268F39923B1F3552391F386
:10178E00951B550BBB27AA2762177307840738F0E2
:10179E009F5F5F4F220F331F441FAA1FA9F335D03F
:1017AE000E2E3AF0E0E832D091505040E695001CF3
:1017BE00CAF72BD0FE2F29D0660F771F881FBB1FAD
:1017CE00261737074807AB07B0E809F0BB0B802D8B
:1017DE00BF01FF2793585F4F3AF09E3F510578F0B7
:1017EE000C94FD140C94F0145F3FE4F3983ED4F384
:1017FE00869577956795B795F7959F5FC9F7880F8B
:10180E00911D9695879597F90895E1E0660F771FDC
:10181E00881FBB1F621773078407BA0720F0621B6D
:0E182E00730B840BBA0BEE1F88F7E09508953C
:10183C000FC00E94E11438F00E94E81420F09523A8
:10184C0011F00C94FD140C941E1511240C94F0142E
:10185C000E94371270F3959FC1F3950F50E0551FFE
:10186C00629FF001729FBB27F00DB11D639FAA27E9
:10187C00F00DB11DAA1F649F6627B00DA11D661F38
:10188C00829F2227B00DA11D621F739FB00DA11D59
:10189C00621F839FA00D611D221F749F3327A00D13
:1018AC00611D231F849F600D211D822F762F6A2FAF
:1018BC0011249F5750409AF0F1F088234AF0EE0F14
:1018CC00FF1FBB1F661F771F881F91505040A9F741
:1018DC009E3F510580F00C94FD140C94F0145F3F66
:1018EC00E4F3983ED4F3869577956795B795F7957D
:1018FC00E7959F5FC1F7FE2B880F911D96958795F5
:04190C0097F90895AA
:10191000CF93DF93DC01F90168387105F1F05CF4D5
:101920006138710561F164387105A1F160387105A4
:1019300009F051C02FC0603C710509F441C0603FFF
:101940007105F1F1603A710509F045C0C081D1819E
:10195000CE0102969183808325C0C081D181CE01C2
:10196000029691838083452B39F04881042E000C28
:10197000550B660B770B1CC0488150E029C0C08115
:10198000D181CE01049691838083488159816A81F7
:101990007B810EC0C081D181CE010296918380836C
:1019A000452BA1F048815981052E000C660B770B61
:1019B0004D935D936D937C93139781E090E00DC000
:1019C000C081D181CE010296918380834881598163
:1019D00060E070E0EDCF80E090E0DF91CF9108957E
:1019E000CF93C82F6EEA0E94AD1365ED8C2F0E9435
:1019F000AD1360E88C2F0E94AD1368EA8C2F0E9413
:101A0000AD136FE38C2F0E94AD1363ED8C2F0E94FA
:101A1000AD1360E08C2F0E94AD1360E48C2F0E9408
:101A2000AD136DE88C2F0E94AD1364E18C2F0E94E2
:101A3000AD1360E28C2F0E94AD1360E08C2F0E94EA
:101A4000AD1360EA8C2F0E94AD1360EC8C2F0E94C6
:101A5000AD136AED8C2F0E94AD1362E18C2F0E94B2
:101A6000AD1361E88C2F0E94AD136FEC8C2F0E9498
:101A7000AD1369ED8C2F0E94AD1361EF8C2F0E9486
:101A8000AD136BED8C2F0E94AD1360E48C2F0E9480
:101A9000AD1364EA8C2F0E94AD1366EA8C2F0E946E
:0E1AA000AD136FEA8C2F0E94AD13CF91089505
:101AAE0011C00E94E11438F00E94E81420F039F4BD
:101ABE009F3F19F426F40C941E150EF4E095E7FBE7
:101ACE000C94FD14E92F0E94371258F3BA176207CF
:101ADE0073078407950720F079F4A6F50C94EF149C
:101AEE000EF4E0950B2EBA2FA02D0B01B90190012B
:101AFE000C01CA01A0011124FF27591B99F0593F6F
:101B0E0050F4503E68F11A16F040A22F232F342FB6
:101B1E004427585FF3CF469537952795A795F04004
:101B2E005395C9F77EF41F16BA0B620B730B840B19
:101B3E00BAF09150A1F0FF0FBB1F661F771F881FD1
:101B4E00C2F70EC0BA0F621F731F841F48F4879529
:101B5E0077956795B795F7959E3F08F0B0CF93951B
:0E1B6E00880F08F09927EE0F97958795089538
:101B7C00A0E0B0E0E4ECFDE00C94D912DC0128010B
:101B8C001696AD90BC901797F701808191811296B3
:101B9C00ED91FC9113971896CD91DC9119972197A3
:101BAC00F7FF02C0E1E0F0E0CA0DDB1D188269010D
:101BBC00A1E0B0E08F01021B130B4C01F2E08F226D
:101BCC009924052C000C66087708CE018A199B090C
:101BDC00CA15DB0519F1411551056105710589F02F
:101BEC00CB01BA01A30192010E945912CA01A62F7E
:101BFC00B72F605D6A9341E0C41AD108A901BC01FA
:101C0C00E4CF98012C0D3D1D121613064CF31C1439
:101C1C001D0434F48114910419F702C080E090E0A3
:101C2C00AB2B31F4F701208131812F7E318320835E
:0A1C3C00CDB7DEB7E0E10C94101301
:101C4600CF93DF9389B1829581704D998260E0913F
:101C5600CF048E17C9F08093CF0494E0E99FF0017A
:101C66001124E82BF0E0EF56FB4F20819091CE0433
:101C7600920F833019F09093CE0406C01092CE04D2
:101C860092306CF59F3F6CF14E9908C087E893E15E
:101C96000197F1F700C000004E9B25C0049908C0CB
:101CA60087E893E10197F1F700C00000049B1DC08F
:101CB60086E00E942913EC0187E00E9429139C010B
:101CC600C436D105A0F0C538D34098F42436310582
:101CD60090F081E02538334078F480E00DC087E04D
:101CE6000BC086E009C088E007C085E005C084E037
:0E1CF60003C083E001C082E0DF91CF9108952A
:101D0400E1EAF4E0108211821282138214821582B5
:101D140016821782108611861286138662ED87EB6F
:101D24000E94C11360E880E10E94C11360E881E170
:101D34000E94C11360E882E10E94C11360E883E15C
:101D44000E94C11360E884E10E94C11360E885E148
:101D54000E94C11360E886E10E94C11360E887E134
:101D64000E94C1136CE080E10E94C1136CE081E128
:101D74000E94C1136CE082E10E94C1136CE083E114
:101D84000E94C1136CE084E10E94C1136CE085E100
:101D94000E94C1136CE086E10E94C1136CE087E1EC
:101DA4000E94C11385E90E94B610682F6F7785E9F8
:061DB4000E94C113089516
:101DBA00A2E0B0E0E3EEFEE00C94DB124C016B0112
:101DCA00FB012281338164807580808191819A83AD
:101DDA008983A680B78037FD03C08D7F9A83898364
:101DEA00FA014081518162817381CE0101967C01A1
:101DFA0008E010E09301C6010E94BE0D298124FF6C
:101E0A0006C00197F501E80FF91F20E32083298115
:101E1A0023FF06C00197F501E80FF91F20E220838E
:101E2A0009811A81F6014085518541505109481BA3
:101E3A00590BB501680F791F9301C4010E947D10E7
:101E4A009C01F4018081918190FF06C0F601828194
:101E5A009381821793070CF4C9012296EEE00C9441
:021E6A00121351
:101E6C000F931F93CF93DF93DB01109719F48FEF30
:101E7C009FEF3DC02D913C91119730FF25C01696D8
:101E8C004D915C91179714962D913C911597421793
:101E9C00530778F41296ED91FC9113978083129668
:101EAC002D913C9113972F5F3F4F13963C932E939C
:101EBC00129716962D913C9117972F5F3F4F1796BF
:101ECC003C932E93169713C01C96ED91FC911D9785
:101EDC00309769F2EB01092F182F0995892B39F6E8
:101EEC008E819F8101969F838E83812F902FDF910E
:081EFC00CF911F910F91089591
:101F0400A2E0B0E0E8E8FFE00C94DB125C016B01B6
:101F1400FB012281338184809580808191819A8321
:101F240089836680778037FD03C08D7F9A83898398
:101F3400FA014081518162817381CE0101967C0155
:101F44000AE010E09401C6010E94BE0D09811A81C5
:101F5400F6014085518541505109481B590BB30185
:101F6400680F791F9401C5010E947D109C01F50141
:101F74008081918190FF06C0F6018281938182174E
:0E1F840093070CF4C9012296EEE00C941213A0
:101F9200FF920F931F93CF93DF93C0EEC20FC03611
:101FA20070F5F02ED82F0E9459130E9470138D2FB6
:101FB2000E94F91380E40E947714D0E08E01000F92
:101FC200111F0C0F1D1F000F111F0E5F1E4F2196B8
:101FD2009E01220F331FC20FD31FCC0FDD1FCE5F16
:101FE200DE4FF80181918F01F1E0FF1201C080956F
:101FF2000E9477140C171D07A1F70E940E15DF919E
:0A200200CF911F910F91FF900895F8
:10200C00E89409C097FB3EF4909580957095619586
:10201C007F4F8F4F9F4F9923A9F0F92F96E9BB273C
:10202C009395F695879577956795B795F111F8CFB8
:10203C00FAF4BB0F11F460FF1BC06F5F7F4F8F4F23
:10204C009F4F16C0882311F096E911C0772321F019
:10205C009EE8872F762F05C0662371F096E8862FB1
:10206C0070E060E02AF09A95660F771F881FDAF708
:0A207C00880F9695879597F908954F
:10208600A0E1B0E0E9E4F0E10C94E312FB01BA014F
:10209600AE014F5F5F4F7A0140E1D7011D924A952D
:1020A600E9F742E051E05A8349839C838B83F7FF2B
:1020B60009C08FE490E090930101809300018FEFB7
:1020C6009FEF14C0A9018C013197FE83ED83C701F0
:1020D6000E9441134F8158852D813E814217530737
:1020E60008F49A01F801E20FF31F10826096E6E009
:0420F6000C941A1319
:1020FA00A0E0B0E0E3E8F0E10C94DD126C015B01D2
:10210A007A01E901480181E08822992400FD03C08F
:10211A004217530750F0A701B501C6010E94BA122F
:10212A00EC16FD0610F0C70117C08E010E191F0923
:10213A000115110541F0B60180E290E00E94360FC8
:10214A0001501109F5CF8114910429F4A701B501B1
:10215A00C6010E94BA12CE01CDB7DEB7ECE00C94EC
:02216A0014134C
:10216C001F93CF93DF9300D00F92CDB7DEB7182F0C
:10217C000E94701380E60E94F9138983898188314B
:10218C00B9F4812F0E9477148A838A81883291F462
:10219C000E94B01480E60E943C148B838B818034A7
:1021AC0059F40E94841489830E940E15898105C0FC
:1021BC008FEF03C08FEF01C08FEF0F900F900F9038
:0821CC00DF91CF911F910895EE
:1021D4001F921FB61F9211248F939F93EF93FF9327
:1021E4008091C6009091D00491111EC08B3351F49C
:1021F400E091D104F0E0E55AFB4F108281E0809336
:10220400D00412C08D3081F08A3071F09091D104E5
:102214009F3150F4E091D10491E09E0F9093D1044A
:10222400F0E0E55AFB4F8083FF91EF919F918F91EE
:082234001F901FBE1F901895BA
:10223C00A2E8B0E0E4E2F1E10C94DD125C014A01A9
:10224C007A836983C12CD12CE981FA81808188231E
:10225C00E9F07401860120E830E0AE014D5F5F4F7C
:10226C00BE016F5F7F4FC5010E94B9008C0D9D1D93
:10227C008C159D054CF48FE490E0909301018093B4
:10228C0000018FEF9FEF03C06C01DECFC601CE576C
:08229C00DF4FECE00C94141379
:1022A4001F93CF93DF93C82F162F61E20E94AD13C3
:1022B40060E08C2F0E94AD136FE78C2F0E94AD134A
:1022C40062E28C2F0E94AD1360E08C2F0E94AD134C
:1022D40067E08C2F0E94AD130E9470138C2F0E9414
:1022E400F91380E40E947714C0E0D4E0812F0E94A7
:1022F40077142197D9F70E940E15DF91CF911F9182
:0223040008953A
:102306000E943F1288F09F5798F0B92F9927B7512E
:10231600B0F0E1F0660F771F881F991F1AF0BA9583
:10232600C9F714C0B13091F00E94EF14B1E00895DE
:102336000C94EF14672F782F8827B85F39F0B93FD0
:10234600CCF3869577956795B395D9F73EF4909536
:0E2356008095709561957F4F8F4F9F4F089532
:10236400DC01ED91FC91119780818A3221F080E0AB
:1023740090E03AE00EC03196ED93FC93DB01ED91D1
:10238400FC911197CF0102968D939C93808191814A
:102394000895ED91FC911197208120532A3068F41F
:1023A400389FA001399F500D1124CA01820F911D3D
:0C23B40031961196FC93EE93ECCF089547
:1023C000CF92DF92EF92FF920F931F93CF93DF9301
:1023D000D82EC62F142F7901C02EF9012081222377
:1023E00099F0D0E00C2D412F6C2F8D2D0E94C90F3C
:1023F000CA5FC93710F01F5FC0E0DF5FF701ED0F64
:10240000F11D20812111EECFDF91CF911F910F910E
:0A241000FF90EF90DF90CF90089549
:10241A00A0E0B0E0E3E1F2E10C94DF127C01FB0101
:10242A00EA01C901A280B380C480D58000811181EC
:10243A00209711F4C5EBD4E0009719F4CE010E945D
:10244A006914B7FC04C0A816B90608F4C5019601B8
:10245A00AC01BE01C7010E947D10CDB7DEB7EAE02C
:04246A000C941613A5
:10246E0057FD9058440F551F59F05F3F71F0479537
:10247E00880F97FB991F61F09F3F79F0879508951C
:10248E00121613061406551FF2CF4695F1DF08C03B
:10249E00161617061806991FF1CF86957105610558
:0424AE0008940895F1
:1024B200A1E21A2EAA1BBB1BFD010DC0AA1FBB1F46
:1024C200EE1FFF1FA217B307E407F50720F0A21BB8
:1024D200B30BE40BF50B661F771F881F991F1A9425
:1024E20069F760957095809590959B01AC01BD014F
:0424F200CF01089579
:1024F600CF93DF93EC0190E0E92FF0E0EE0FFF1FA2
:10250600E558FB4F8081811102C081810EC0A881F0
:10251600B9812C91821305C091811196B983A88344
:1025260001C09F5F9B3040F3892FDF91CF910895C3
:102536000E948F140C98149A87B18F7887B98BB143
:1025460080678BB91092CF044C9B03C081E08093C7
:10255600CF044D9B05C08091CF0482608093CF0449
:0E25660089B18695869583708093CF04089581
:10257400A0E0B0E0E0ECF2E10C94E1126C01EB01BC
:102584008A017B01E40EF51ECE15DF0541F0899129
:10259400B601082E000C990B0E94360FF5CFC80126
:0A25A400CDB7DEB7E8E00C94181381
:1025AE002F923F924F925F926F927F928F929F9255
:1025BE00AF92BF92CF92DF92EF92FF920F931F9343
:1025CE00CF93DF93CDB7DEB7CA1BDB0B0FB6F894F4
:0825DE00DEBF0FBECDBF099462
:1025E6009091CD04992369F02091CC0428130BC057
:1025F600913059F0923059F4223059F08091C80444
:10260600089580E0089580E0089581E0089580E0CF
:06261600089580E0089524
:10261C002A88398848885F846E847D848C849B8466
:10262C00AA84B984C884DF80EE80FD800C811B8174
:10263C00AA81B981CE0FD11D0FB6F894DEBF0FBEA3
:06264C00CDBFED01089571
:10265200ECE7F0E09081907F8770892B808386E0A1
:102662008A95F1F700C0EAE7F0E080818064808318
:10267200808186FDFDCF8091780090917900089548
:10268200A2E0B0E0E7E4F3E10C94E5128C015A8396
:102692004983AE014F5F5F4F0E941E11F8012081F6
:1026A20024FF02C08FEF9FEF2296E4E00C941C13EC
:1026B200CF93DF93D82FC62F60EB640F0E94AD1328
:1026C2006C2F6F708D2F0E94AD136C2F62956F70FF
:0E26D200605F8D2F0E94AD13DF91CF910895B0
:1026E000CF93DF930F92CDB7DEB7198284EA809340
:1026F000BC00ECEBF0E080818823ECF78091B9001E
:0A27000089830F90DF91CF910895B7
:10270A00CF93DF93D82FC62F0E94701380E60E94C2
:10271A00F9138D2F0E9477148C2F0E9477140E9430
:08272A000E15DF91CF91089517
:1027320087B1836087B988B18C7F88B987B18C7F74
:1027420087B91092B90082E08093B800ECEBF0E018
:082752008081846080830895FA
:10275A00CF93DF93D82FC62F0E9470138D2F0E941C
:10276A00F91380E00E9477148C2F0E9477140E943C
:08277A000E15DF91CF910895C7
:10278200CF93DF93D82FC62F0E94701380E60E944A
:10279200F9138D2F0E9477148C2F0E9477140E94B8
:0827A2000E15DF91CF9108959F
:1027AA00A0E0B0E0EBEDF3E10C94E712AE01475F75
:1027BA005F4F6F8178858D819E810E94F614E2E0D9
:0427CA000C941E133A
:1027CE00A0E0B0E0EDEEF3E10C94E712AE01475F4E
:1027DE005F4F6F8178858D819E810E94F614E2E0B5
:0427EE000C941E1316
:1027F200880F8093BB0084E88093BC00ECEBF0E090
:1028020080818823ECF7E9EBF0E0808180818E7F84
:02281200089527
:102814001092C5008CE08093C400E0ECF0E080816D
:102824008260808388E98093C10086E08093C2003F
:02283400089505
:10283600092E0394000C11F4882352F0BB0F40F4C8
:10284600BF2B11F460FF04C06F5F7F4F8F4F9F4F08
:022856000895E3
:10285800DB018F939F930E949A14BF91AF91A29F1F
:10286800800D911DA39F900DB29F900D1124089586
:10287800880F81608093BB0084E88093BC00ECEBF8
:0E288800F0E080818823ECF78091B90008957C
:10289600CF93DF93EC018881882331F021960E9443
:0E28A600CA1489918111FBCFDF91CF91089563
:1028B400A29FB001B39FC001A39F700D811D11247D
:0E28C400911DB29F700D811D1124911D08956C
:1028D200FC01AF014F5F5F4F2081222311F0FA010B
:0C28E200F8CF9F01281B390BC901089595
:1028EE008093BB0084E88093BC00ECEBF0E0808129
:0A28FE008823ECF78091B9000895DB
:1029080084E88093BC00ECEBF0E080818823ECF74E
:062918008091BB00089550
:10291E00ECE7F0E0808180648083EAE7F0E080817C
:06292E0087688083089514
:102934000E945A14A59F900DB49F900DA49F800DE2
:06294400911D112408950D
:10294A00EC010E9426150E942515CE010E9427152A
:06295A00CE010E942315CE
:1029600084EA8093BC00ECEBF0E080818823ECF7F4
:022970000895C8
:102972009C01215631092A31310510F48F759927AE
:022982000895B6
:1029840061E08627682F619583E00E94C113089552
:10299400E0ECF0E0908195FFFDCF8093C6000895B0
:1029A4009C01215431092A31310508F480620895CB
:0E29B4005058BB27AA270E94570D0C941B14E5
:0E29C20000240A941616170618060906089532
:0E29D00000240A941216130614060506089534
:0E29DE00E894BB2766277727CB0197F9089569
:0E29EC009A01AB016FEF7FE70E944310089540
:0C29FA0097F99F6780E870E060E00895A6
:0C2A0600EE0FFF1F0590F491E02D0994E5
:0A2A12001092D1041092D004089530
:082A1C0084E98093BC000895D9
:082A240060E00E9452110895C8
:082A2C000E94AF0B0C941B1477
:082A34000E941E0C0C941B14FF
:062A3C009FEF80EC0895FD
:042A42000C940000F0
:042A46000E94B70033
:022A4A000895ED
:022A4C000895EB
:022A4E000895E9
:102A50000000000000000000002F00000000070040
:102A60000700147F147F1400242A7F2A12002313E6
:102A7000086462003649552250000005030000003A
:102A8000001C224100000041221C000014083E08E6
:102A9000140008083E080800000050300000101024
:102AA00010101000006060000000201008040200F8
:102AB0003E5149453E0000427F400000426151497D
:102AC00046002141454B31001814127F1000274564
:102AD000454539003C4A4949300001710905030068
:102AE000364949493600064949291E000036360054
:102AF00000000056360000000814224100001414A3
:102B000014141400004122140800020151090600A7
:102B1000324959513E007E1111117E007F494949C9
:102B200036003E41414122007F4141221C007F4945
:102B3000494941007F09090901003E4149497A009C
:102B40007F0808087F0000417F4100002040413F8E
:102B500001007F08142241007F40404040007F0276
:102B60000C027F007F0408107F003E4141413E007F
:102B70007F09090906003E4151215E007F0919299C
:102B8000460046494949310001017F0101003F40AB
:102B900040403F001F2040201F003F4038403F0082
:102BA0006314081463000708700807006151494561
:102BB0004300007F41410000020408102000004152
:102BC000417F0000040201020400404040404000F8
:102BD0000001020400002054545478007F4844440B
:102BE0003800384444442000384444487F00385476
:102BF00054541800087E090102000C5252523E0043
:102C00007F080404780000447D4000002080443D9B
:102C100000007F102844000000417F4000007C0439
:102C2000180478007C0804047800384444443800D0
:102C30007C1414140800081414187C007C08040484
:102C40000800485454542000043F444020003C40B5
:102C500040207C001C2040201C003C4030403C00B8
:102C60004428102844000C5050503C004464544CFC
:102C7000440000083641000000007F0000000041D1
:0A2C800036080000100808100800D4
:102C8A002530326C752E2530336C752E2530336C19
:102C9A007520487A0052580054580055534552003E
:102CAA0055534220004D6F64653A205B25735D20C1
:102CBA00202020004374726C3A205B25735D20202B
:102CCA000043757272656E7420467265713A2020EF
:102CDA002020200053454C4543540049444C45208C
:102CEA0020004544495420200053746174653A20F9
:102CFA002573002020202020202020202020202092
:102D0A00202020004A4F593A205550004A4F593A3C
:102D1A0020444F574E004A4F593A204C45465400DA
:102D2A004A4F593A205249474854004A4F593A2083
:102D3A00505245535300454E433A204357203E3E96
:102D4A0000454E433A203C3C2043435700454E43FE
:102D5A003A20505245535300464C5254525820522E
:102D6A006164696F20496E697469616C697A656426
:0F2D7A00210D0A004543484F3A20003B0D0A0047
:102D89008096980040420F00A0860100102700009D
:102D9900E8030000640000000A00000001000000D0
:102DA90068076C094C836A9074A07AC000806888AF
:062DB90000846C82008121
:102DBF0000FF0100010000FFFF0000010001FF0004
:082DCF000001030405070809D7
:072DD700286E756C6C2900E9
:062DDE00286E696C29005B
:042DE400809FD500F7
:012DE80001E9
:012DE90001E8
:012DEA0003E5
:00000001FF
