:100000000C9486000C9493140C9493140C949314F5
:100010000C9493140C9493140C9493140C949314C4
:100020000C9493140C9493140C9493140C949314B4
:100030000C9493140C9493140C9493140C949314A4
:100040000C9493140C9493140C9493140C94931494
:100050000C9493140C9493140C9493140C94931484
:100060000C9493140C9493140C9493140C94931474
:100070000C9493140C9493140C9493140C94931464
:100080000C9493140C9493140C9493140C94931454
:100090000C9493140C9493140C9493140C94931444
:1000A0000C9493140C9493140C9493140C94931434
:1000B0000C9493140C9493140C9493140C94931424
:1000C0000C9493140C9493140C949314D809E10990
:1000D000EA09F309FC09050A0E0A170A01000102E0
:1000E000800102045A002934045A0466800466041C
:1000F0007F002C8C047F04818004810483002CA564
:10010000048304888004880489002CA711241FBE5E
:10011000CFEFD8E0DEBFCDBFECEDF0E041E017C09F
:10012000B591A59135912591059107FD0CC095914B
:100130008591EF01F92FE82F05900D92A217B307D3
:10014000D9F7FE0104C01D92A217B307E1F7EC3006
:10015000F40731F70E9487040C942414F894FFCF1D
:10016000AEE0B0E0E6EBF0E00C9479124C016B01EC
:100170001A8219828FEF9FEF9C838B831E821D82D0
:1001800058874F833A872987A12CB12CD6016D90CF
:100190007C90F301EA0DFB1D808181110FC0D60117
:1001A000ED93FC938081853209F0D3C13F01BFEF0D
:1001B0006B1A7B0AF6017182608219C0853279F36D
:1001C000B401082E000C990B0E94090F4FEFA41ADE
:1001D000B40ADCCF8C32ACF08D32F9F489819A818B
:1001E00081609A8389833196D601ED93FC93D60181
:1001F000ED91FC9180818B3269F789819A818460CD
:10020000F0CF803221F489819A818860EACF8332ED
:1002100051F489819A818061E4CF803321F489810E
:100220009A818260DECFB701C6010E9451119E8380
:100230008D8397FF0BC029813A81B1E02B273A8348
:1002400029839195819591099E838D8389819A81D6
:1002500080FF03C08D7F9A838983D601ED91FC9145
:10026000119780818E3249F43196ED93FC93B7015A
:10027000C6010E9451119C838B83C6010E941A12F1
:10028000582ED601ED91FC918081082E000C990B1F
:100290000E944914893609F443C084F4833609F472
:1002A00002C134F4853209F427C18136E1F030C14E
:1002B0008436B1F188360CF4D9C02AC1803709F4EC
:1002C0009AC03CF48E3609F4BCC08F3609F461C084
:1002D0001FC1853709F440C0883709F476C08337D9
:1002E00009F016C1F3C0652D70E0A701CE010B9691
:1002F0000E940000892B09F426C1D601ED91FC91E2
:100300001197CF0101968D939C932081AE01455F9B
:100310005F4FBE016F5F7F4FC4010E94000010C19C
:10032000652D70E0970141E050E0CE010B960E94F0
:100330005B0C892B09F407C1F6018081918101963C
:1003400091838083AE01455F5F4FBE016F5F7F4F3A
:10035000C4010E94A00AF4C0652D70E0970140E03E
:1003600050E0CE010B960E945B0C892B09F4EBC088
:10037000D6018D919C91119701968D939C93AE011E
:10038000455F5F4FBE016F5F7F4FC4010E94550FF5
:10039000D7C0652D70E0970140E050E0CE010B968C
:1003A0000E945B0C892B09F4CEC0F60180819181FB
:1003B000019691838083AE01455F5F4FBE016F5F01
:1003C0007F4FC4010E94B00EBBC0652D70E0970145
:1003D00040E050E0CE010B960E945B0C892B09F4A3
:1003E000B2C0D601ED91FC911197CF0101968D938A
:1003F0009C9320811CC0970140E050E060EF70E0CA
:10040000CE010B960E945B0C892B09F49CC0F6016F
:10041000808191810196918380838B859C85892B36
:1004200029F420E030E045E754E084C028E7AE013D
:10043000455F5F4FBE016F5F7F4FC4010E942C0775
:100440007FC0A501400F511F652D70E09701CE01BF
:100450000B960E940000892B09F475C0D6018D917E
:100460009C91119701968D939C9373C0652D70E0BC
:10047000A701CE010B960E940000892B09F463C0EE
:10048000D601ED91FC911197CF0101968D939C932C
:100490002081AE01455F5F4FBE016F5F7F4FC4019A
:1004A0000E9400004DC0B0E85B124DC0F601808193
:1004B0009181019691838083D701ED91FC911197F1
:1004C000CF0102968D939C93808120C0B0E85B128F
:1004D0003AC0F60180819181019691838083D70192
:1004E000ED91FC911197CF0102968D939C934081E1
:1004F000518120E030E01EC0B0E85B1224C0F6015C
:10050000208131812F5F3F4F318320838B870DC046
:1005100085E28B87D6016D927C921A8219821E82A7
:100520001D828FEF9FEF9C838B8321E030E0AE0133
:10053000455F5F4FBE016F5F7F4FC4010E94AC11EA
:100540008A0D9B1D07C0F6018081918101969183E0
:0C0550008083C5012E96EFE00C94B012E1
:10055C003F924F925F926F927F928F929F92AF9247
:10056C00BF92CF92DF92EF92FF920F931F93CF9394
:10057C00DF93CDB7DEB764970FB6F894DEBF0FBE2E
:10058C00CDBF633008F0A5C129013A0194E0491AA6
:10059C00510861087108EDEF4E16E7E05E06610444
:1005AC00710408F096C125013601F1E04F1A51088B
:1005BC00610871089FEF491659069FE0690671049E
:1005CC0008F087C1E114F104E0E10E07110508F011
:1005DC0080C1250136014701580169017A01162FA6
:1005EC00082F81149104A104B10431F5F4E0CF1A61
:1005FC00D108E108FEEFFF0ACC0CDD1CEE1CFF1C41
:10060C00CC0CDD1CEE1CFF1CCC0CDD1CEE1CFF1CF2
:10061C00CC0CDD1CEE1CFF1CCC0CDD1CEE1CFF1CE2
:10062C00CC0CDD1CEE1CFF1CCC0CDD1CEE1CFF1CD2
:10063C0040E050E0BA01DBC021E0421651046104F5
:10064C00710409F048C0D501C4010497A109BE4F3B
:10065C00C80ED91EEA1EFB1ECC0CDD1CEE1CFF1CAA
:10066C00CC0CDD1CEE1CFF1CCC0CDD1CEE1CFF1C92
:10067C00CC0CDD1CEE1CFF1CCC0CDD1CEE1CFF1C82
:10068C00CC0CDD1CEE1CFF1CCC0CDD1CEE1CFF1C72
:10069C00B501A4014150510961097E4F440F551F0A
:1006AC00661F771F440F551F661F771F440F551F7A
:1006BC00661F771F440F551F661F771F440F551F6A
:1006CC00661F771F440F551F661F771F440F551F5A
:1006DC00661F771F8CC0C301B2010E94D90F6987B6
:1006EC007A878B879C87C501B4010E94D90F298515
:1006FC003A854B855C850E94881420E030E040E010
:10070C0053E40E948C140E942C0A6D877E878F877D
:10071C00988BD701C601880F991FAA1FBB1F880F82
:10072C00991FAA1FBB1F880F991FAA1FBB1F880FD9
:10073C00991FAA1FBB1F880F991FAA1FBB1F880FC9
:10074C00991FAA1FBB1FBC01CD01660F771F881F05
:10075C00991F0E94D90F2D853E854F8558890E947F
:10076C00521420E030E040E054E40E9451140E9406
:10077C0022116B017C01D501C401880F991FAA1F9E
:10078C00BB1F880F991FAA1FBB1F880F991FAA1F79
:10079C00BB1F880F991FAA1FBB1F880F991FAA1F69
:1007AC00BB1F880F991FAA1FBB1FBC01CD01660F71
:1007BC00771F881F991F0E94D90F698B7A8B8B8B9F
:1007CC009C8B2D853E854F85588969857A858B85CF
:1007DC009C850E948C149B01AC0169897A898B8958
:1007EC009C890E9451140E942211AB01BC01113052
:1007FC0049F018F0123059F00FC00F2EFAE23F2ECC
:10080C00F02D0BC00F2EF2E33F2EF02D06C00F2E55
:10081C00FAE33F2EF02D01C0312C59824A82D701C8
:10082C00C601A37024E0129FF0011124E65AFB4F7D
:10083C002081822F8A2B8B83DC82CD82D301C20153
:10084C0088279927AF70BB27072E7CE0B695A79514
:10085C00979587957A95D1F7702D6A017B01EFE01A
:10086C00EE228E298E835F8348870E940F1380E6C9
:10087C000E949813832D0E94F613CE0101967C01E1
:10088C006E0199E0C90ED11CF70181917F010E9484
:10089C00F613EC14FD04C1F70E948014013011F41E
:1008AC006FE201C06FE089288A288B2809F4606404
:1008BC00113041F018F0123049F00BC080E10E9469
:1008CC00601307C081E10E94601303C082E10E94A3
:1008DC00601364960FB6F894DEBF0FBECDBFDF91E8
:1008EC00CF911F910F91FF90EF90DF90CF90BF9021
:1008FC00AF909F908F907F906F905F904F903F90B4
:02090C0008954C
:10090E000E9438130E943A120E94550E60917B0489
:10091E0070917C0480917D0490917E040E941A084F
:10092E0081E00E9441148CE30E94C30C8CE30E9470
:10093E0084148DE30E94C30C8DE30E948414249AC8
:10094E002C9A0E94120B80E00E948B09D0E06894D2
:10095E00AA24A1F8BB24B39401E010E00F2EC12C01
:10096E00F2E1DF2EFAE7EF2EF12CF02D0E94F60DBC
:10097E00C82F80918604813071F018F0823081F199
:10098E00F6C08FEF8C0F843008F012C1B09286043F
:10099E001092850413C1C13049F4809185048823D7
:1009AE0009F40CC181508093850408C1C23049F40A
:1009BE0080918504823008F001C18F5F8093850499
:1009CE00FDC0C53009F0F4C0A0928604B092820436
:1009DE00B09281041093800400937F048B2DE6C0A7
:1009EE0080918504823028F59AEF9C0F923008F0A2
:1009FE00F6C081110CC08B2D90918404911180E072
:100A0E0080938404811102C02C9A01C02C9880918D
:100A1E008504813039F48B2D90918304911180E0FF
:100A2E0080938304B09281041092800410927F040C
:100A3E0098C0823009F0D3C0C33071F48091820423
:100A4E00882319F0815080938204B0928104109211
:100A5E00800410927F04CDC0C43071F48091820462
:100A6E00873018F48F5F80938204B09281041092C5
:100A7E00800410927F04BDC08AEF8C0F823008F084
:100A8E00AEC0E091820424E0E29FF0011124EC5EFE
:100A9E00FB4F4081518162817381C63049F580914F
:100AAE007B0490917C04A0917D04B0917E04480F4C
:100ABE00591F6A1F7B1F413084E2580784EF680775
:100ACE00710548F440937B0450937C0460937D043D
:100ADE0070937E0436C080E094E2A4EFB0E0809381
:100AEE007B0490937C04A0937D04B0937E0429C074
:100AFE0080917B0490917C04A0917D04B0917E0442
:100B0E002A013B0122E1520E2AE7621E711C841556
:100B1E009505A605B70568F0841B950BA60BB70BBC
:100B2E0080937B0490937C04A0937D04B0937E0409
:100B3E0008C0C0927B04D0927C04E0927D04F092B7
:100B4E007E0460917B0470917C0480917D04909171
:100B5E007E040E941A08B0928104109280041092B2
:100B6E007F04C83009F045C0B092860427C080913A
:100B7E0086048230D1F480E001C08B2D20917F0459
:100B8E00309180042F5F3F4F3093800420937F0479
:100B9E002035310558F0809181048B258093810496
:100BAE001092800410927F0409C080E0811106C06B
:100BBE00C11118C0DF5FD233C0F40AC00E94120BFD
:100BCE00CC2329F08C2F0E948B09D0E001C0D0E0FD
:100BDE0083EF91E00197F1F700C00000C7CEC83057
:100BEE0069F4C2CF0E94120BEDCF0E94120BD0E01F
:100BFE00EFCF80918604823009F7BFCF80917F04BA
:100C0E009091800401969093800480937F048035A8
:060C1E00910508F6CDCFA0
:100C24004F925F926F927F928F929F92AF92BF92F8
:100C3400CF92DF92EF92FF920F931F93CF93DF93A4
:100C4400CDB7DEB72A970FB6F894DEBF0FBECDBF7F
:100C540089876A8729013A0147015801862F8F50F5
:100C64008C3408F0E0C0D801C7010197A109B1098B
:100C74008F3F9F4FAF40B10508F0D5C041145104D8
:100C840080E16806710408F0CEC041145104610487
:100C9400710479F4C62ED12C24E0C21AD108D6945A
:100CA400DC2CCC24D794C7940D2C000CEE08FF0840
:100CB40071C0C801B7010E94D90F69837A838B83FD
:100CC4009C83C301B2010E94D90F29813A814B81CF
:100CD4005C810E94881420E030E040E053E40E94EC
:100CE4008C140E942C0A6D837E838F8398879A8547
:100CF40080E8989FB0011124072E000C880B990BF3
:100D04000E94DB0F2D813E814F8158850E94521431
:100D140020E030E040E054E40E9451140E9422118B
:100D24006B017C01D301C201880F991FAA1FBB1F4D
:100D3400880F991FAA1FBB1F880F991FAA1FBB1FCB
:100D4400880F991FAA1FBB1F880F991FAA1FBB1FBB
:100D5400880F991FAA1FBB1FBC01CD01660F771F07
:100D6400881F991F0E94D90F2B013C012D813E81C0
:100D74004F81588569817A818B819C810E948C1472
:100D84009B01AC01C301B2010E9451140E942211C3
:100D94002B013C012985222319F082E2898302C0B8
:100DA4009AE19983692D89810E946013682D898154
:100DB4008F5F0E946013D701C60188279927A3700B
:100DC400BB27BD018827992789818E5F0E94601304
:100DD4006D2D89818D5F0E9460136C2D89818C5FDC
:100DE4000E946013882499242FE0A222BB24072E9A
:100DF4007CE0B694A794979487947A95D1F7702D54
:100E0400D301C201AF70682D6A2B89818B5F0E9468
:100E14006013652D89818A5F0E946013642D898126
:100E2400895F0E9460132A960FB6F894DEBF0FBE46
:100E3400CDBFDF91CF911F910F91FF90EF90DF9085
:100E4400CF90BF90AF909F908F907F906F905F9066
:040E54004F9008951E
:100E5800AFE0B0E0E2E3F7E00C9476121C016B011E
:100E68005A8349832B83FB018281938184809580F7
:100E780000811181A680B78097FD02C00D7F02C056
:100E880081E090E0E981FA8140805180628073803E
:100E98009801207133273D832C83740104FF08C017
:100EA800411451046104710419F032E0E31AF108A5
:100EB800F801E870FF27FF83EE8303FF03C0F1E02A
:100EC800EF1AF108F6010084F185E02D3197FF87CC
:100ED800EE87EA0DFB1D10829C012E193F09398708
:100EE8002887C801827099279B878A87EB818E2F74
:100EF800EE0F990B9C01215431093D872C872E85D3
:100F08003F852230310530F48C819D81892B09F091
:100F180042C05CC0411451046104710461F18E85C2
:100F28009F8501979F878E87C2018F7099278A3086
:100F3800910514F4C09602C0895A9F4FEC85FD852F
:100F48007A9748F49C012062215631092A313105EB
:100F580010F40E943814EE85FF85EA0DFB1D80838E
:100F6800F1E0EF1AF10884E0769467945794479477
:100F78008A95D1F7C4CF888599858E0D9F1D18163F
:100F880019066CF21E141F040CF0BECFEA85FB850F
:100F9800EF2B29F6B9CFE981FA8180819181A2816D
:100FA800B381892B8A2B8B2B89F0EE85FF85EA0D7F
:100FB800FB1D31972B8120838E859F8502979F8704
:100FC8008E87FC01EA0DFB1D80E38083EE81FF81A3
:100FD800EF2B59F02E853F85215031093F872E8709
:100FE800F901EA0DFB1D80E28083F60140855185F9
:100FF800415051092E853F85421B530BB9016A0D9B
:101008007B1D9401C1010E9450109C01F101808157
:10101800918190FF06C0F601828193818217930720
:0C1028000CF4C9012F96E2E10C94AD120B
:101034004F925F926F927F928F929F92AF92BF92E4
:10104400CF92DF92EF92FF920F931F936B017C017B
:1010540060E076E483EC93E2A70196010E94F81124
:1010640029013A01DA01C90183709927AA27BB270C
:10107400892B8A2B8B2B79F08FEF481A580A680A30
:10108400780AD301C20183709927AA27BB27892B29
:101094008A2B8B2B89F7A7019601C301B2010E9409
:1010A400BA13AB01BC014115E6E45E07E3EC6E073D
:1010B400E3E27E0760F5CC0CDD1CEE1CFF1CCC0CBF
:1010C400DD1CEE1CFF1C4C0D5D1D6E1D7F1D882458
:1010D400992454018C189D08AE08BF0802C0AC01C5
:1010E400BD0184E0480E511C611C711CDB01CA0166
:1010F4008C0D9D1DAE1DBF1D8C019D01080D191D7C
:101104002A1D3B1D01151644234C334240F3CB01E9
:10111400BA0120E438E74DE751E00E94F811D22EDD
:1011240029E130E040E050E00E94F81110E4E12EA3
:1011340012E4F12E0FE010E06D2D80E00E94120603
:10114400A12CB12C6501A394E12CF12C8701A301FE
:10115400920160E080E00E94AE02A301920161E08E
:1011640080E00E94AE026FE480E10E9424136FE4E9
:1011740081E10E94241360E882E10E9424136CEF51
:1011840083E00E94241360E085EA0E942413642D06
:1011940086EA0E94241360E281EB0E9424131F91CB
:1011A4000F91FF90EF90DF90CF90BF90AF909F9002
:0C11B4008F907F906F905F904F90089597
:1011C0004F925F926F927F928F929F92AF92BF9257
:1011D000CF92DF92EF92FF920F931F93CF93DF9303
:1011E000CDB7DEB764970FB6F894DEBF0FBECDBFA4
:1011F000E82E40907B0450907C0460907D047090B9
:101200007E040F2EF8EE8F2EF3E09F2EA12CB12C32
:10121000F02DC301B201A50194010E94F8119F9322
:101220008F937F936F93C301B20120E432E44FE0C8
:1012300050E00E94F811122F032FF42ED52EA50195
:1012400094010E94F8115F934F933F932F93DF9285
:10125000FF920F931F938CE393E09F938F93CE01A4
:1012600001969F938F930E94861329810FB6F8945D
:10127000DEBF0FBECDBF2223B9F110E0F12CD12C7F
:10128000CC24C39480918604813039F40C2D809154
:1012900085048230C1F00D2D16C0823079F4809122
:1012A0008504823069F4E0918204F0E0EA59FB4F52
:1012B0008081811307C00091810405C00D2D03C0FA
:1012C0000D2D01C00D2D4E2D6F2D8DE30E949C0F15
:1012D00096E0F90E1F5FE1E0F0E0EC0FFD1FE10F7B
:1012E000F11D20812111CECF64960FB6F894DEBF98
:1012F0000FBECDBFDF91CF911F910F91FF90EF9067
:10130000DF90CF90BF90AF909F908F907F906F9025
:061310005F904F9008956C
:10131600EF92FF920F931F93CF93DF93CDB7DEB774
:1013260064970FB6F894DEBF0FBECDBF182F80911D
:101336008604813029F0823031F48EE993E005C0CD
:1013460080E993E002C087E993E09F938F9385EA53
:1013560093E09F938F93CE0101967C019F938F9389
:101366000E94741300E0970140E060E08CE30E9465
:101376007F110F900F900F900F900F900F901123E9
:1013860009F45AC02FEA33E043E060E08CE30E94A0
:101396007F11812F90E0FC013197E830F10508F0CC
:1013A6004BC0EA59FF4F0C947A1401E020EC33E06D
:1013B60043E060E08CE30E947F113EC001E028EC30
:1013C60033E043E060E08CE30E947F1135C001E02A
:1013D60022ED33E043E060E08CE30E947F112CC0F5
:1013E60001E02CED33E043E060E08CE30E947F11E6
:1013F60023C001E027EE33E043E060E08CE30E9487
:101406007F111AC001E022EF33E043E060E08CE395
:101416000E947F1111C001E02DEF33E043E060E050
:101426008CE30E947F1108C001E029E034E043E02C
:1014360060E08CE30E947F1164960FB6F894DEBFDD
:101446000FBECDBFDF91CF911F910F91FF90EF900F
:021456000895F7
:101458008F929F92AF92BF92CF92DF92EF92FF92BC
:101468000F931F938B019C011127032F000F111F4E
:1014780027FB00F9222733271127A8014F575109C5
:10148800473151050CF045C057FD2DC00FEF1FEF38
:101498002FE730E004C035952795179507954A95AD
:1014A800D2F74801590186229722A822B922892811
:1014B8008A288B2871F197FF07C0DC01CB01800FC8
:1014C800911FA21FB31F02C0DC01CB01009510952C
:1014D8002095309580239123A223B323482F392FB9
:1014E8002A2F5B2F1AC097FF0FC08B019C01000F9A
:1014F800111F221F331F012B022B032B51F040E039
:1015080030E020E85FEB09C040E030E020E050E048
:1015180004C0462F372F282F592F642F732F822F5F
:10152800952F1F910F91FF90EF90DF90CF90BF9074
:08153800AF909F908F90089581
:10154000A2E0B0E0E6EAFAE00C9476123C016B010E
:10155000FB0122813381A480B580808191819A83AF
:10156000898386809780FA01208031804280538071
:10157000B201A10157FE07C044275527BA014219FD
:1015800053096409750937FD03C08D7F9A838983E8
:10159000950157FC05C0898182FD02C083FF02C00E
:1015A00021503109CE0101967C010AE010E0C6010C
:1015B0000E94910D57FC03C0298122FF0AC00197A8
:1015C000F401E80FF91F57FC02C02BE209C02DE21D
:1015D00007C023FF06C00197F401E80FF91F20E2BE
:1015E000208309811A81F6014085518541505109B6
:1015F000481B590BB401680F791F9501C3010E9464
:1016000050109C01F3018081918190FF06C0F6018A
:1016100082819381821793070CF4C9012296E2E13B
:041620000C94AD1267
:10162400EF92FF920F93CF93DF93CDB7DEB764971A
:101634000FB6F894DEBF0FBECDBF8091840488231B
:1016440019F084E593E002C081E593E09F938F93C2
:1016540081E693E09F938F93CE0101967C019F9343
:101664008F930E94741380E00E949212082F9701B6
:1016740040E060E08DE30E947F110F900F900F9087
:101684000F900F900F9080918304882319F08CE5BC
:1016940093E002C087E593E09F938F9380E793E004
:1016A4009F938F93CE0101967C019F938F930E9409
:1016B400741381E00E949212082F970142E060E0C7
:1016C4008DE30E947F1100E02DE733E044E060E009
:1016D4008DE30E947F1186E00E94E0080F900F9036
:1016E4000F900F900F900F9064960FB6F894DEBF92
:1016F4000FBECDBFDF91CF910F91FF90EF90089572
:1017040010C00E945F1458F00E94581440F029F44D
:101714005F3F29F00C94741451110C9467140C94C9
:1017240090140E94D61168F39923B1F3552391F3D1
:10173400951B550BBB27AA2762177307840738F03C
:101744009F5F5F4F220F331F441FAA1FA9F335D099
:101754000E2E3AF0E0E832D091505040E695001C4D
:10176400CAF72BD0FE2F29D0660F771F881FBB1F07
:10177400261737074807AB07B0E809F0BB0B802DE5
:10178400BF01FF2793585F4F3AF09E3F510578F011
:101794000C9474140C9467145F3FE4F3983ED4F3F0
:1017A400869577956795B795F7959F5FC9F7880FE5
:1017B400911D9695879597F90895E1E0660F771F37
:1017C400881FBB1F621773078407BA0720F0621BC8
:0E17D400730B840BBA0BEE1F88F7E095089597
:1017E2000FC00E94581438F00E945F1420F0952315
:1017F20011F00C9474140C94901411240C9467142A
:101802000E94D61170F3959FC1F3950F50E0551FBA
:10181200629FF001729FBB27F00DB11D639FAA2743
:10182200F00DB11DAA1F649F6627B00DA11D661F92
:10183200829F2227B00DA11D621F739FB00DA11DB3
:10184200621F839FA00D611D221F749F3327A00D6D
:10185200611D231F849F600D211D822F762F6A2F09
:1018620011249F5750409AF0F1F088234AF0EE0F6E
:10187200FF1FBB1F661F771F881F91505040A9F79B
:101882009E3F510580F00C9474140C9467145F3FD2
:10189200E4F3983ED4F3869577956795B795F795D7
:1018A200E7959F5FC1F7FE2B880F911D969587954F
:0418B20097F9089505
:1018B600CF93DF93DC01F90168387105F1F05CF430
:1018C6006138710561F164387105A1F160387105FF
:1018D60009F051C02FC0603C710509F441C0603F5A
:1018E6007105F1F1603A710509F045C0C081D181F9
:1018F600CE0102969183808325C0C081D181CE011D
:10190600029691838083452B39F04881042E000C82
:10191600550B660B770B1CC0488150E029C0C0816F
:10192600D181CE01049691838083488159816A8151
:101936007B810EC0C081D181CE01029691838083C6
:10194600452BA1F048815981052E000C660B770BBB
:101956004D935D936D937C93139781E090E00DC05A
:10196600C081D181CE0102969183808348815981BD
:1019760060E070E0EDCF80E090E0DF91CF910895D8
:10198600CF93C82F6EEA0E944C1365ED8C2F0E94F0
:101996004C1360E88C2F0E944C1368EA8C2F0E942F
:1019A6004C136FE38C2F0E944C1363ED8C2F0E9417
:1019B6004C1360E08C2F0E944C1360E48C2F0E9425
:1019C6004C136DE88C2F0E944C1364E18C2F0E94FF
:1019D6004C1360E28C2F0E944C1360E08C2F0E9407
:1019E6004C1360EA8C2F0E944C1360EC8C2F0E94E3
:1019F6004C136AED8C2F0E944C1362E18C2F0E94CF
:101A06004C1361E88C2F0E944C136FEC8C2F0E94B4
:101A16004C1369ED8C2F0E944C1361EF8C2F0E94A2
:101A26004C136BED8C2F0E944C1360E48C2F0E949C
:101A36004C1364EA8C2F0E944C1366EA8C2F0E948A
:0E1A46004C136FEA8C2F0E944C13CF91089521
:101A540011C00E94581438F00E945F1420F039F429
:101A64009F3F19F426F40C9490140EF4E095E7FBD0
:101A74000C947414E92F0E94D61158F3BA17620714
:101A840073078407950720F079F4A6F50C9466147F
:101A94000EF4E0950B2EBA2FA02D0B01B901900185
:101AA4000C01CA01A0011124FF27591B99F0593FC9
:101AB40050F4503E68F11A16F040A22F232F342F11
:101AC4004427585FF3CF469537952795A795F0405F
:101AD4005395C9F77EF41F16BA0B620B730B840B74
:101AE400BAF09150A1F0FF0FBB1F661F771F881F2C
:101AF400C2F70EC0BA0F621F731F841F48F4879584
:101B040077956795B795F7959E3F08F0B0CF939575
:0E1B1400880F08F09927EE0F97958795089592
:101B2200A0E0B0E0E7E9FDE00C947812DC012801C6
:101B32001696AD90BC901797F7018081918112960D
:101B4200ED91FC9113971896CD91DC9119972197FD
:101B5200F7FF02C0E1E0F0E0CA0DDB1D1882690167
:101B6200A1E0B0E08F01021B130B4C01F2E08F22C7
:101B72009924052C000C66087708CE018A199B0966
:101B8200CA15DB0519F1411551056105710589F089
:101B9200CB01BA01A30192010E94F811CA01A62F3A
:101BA200B72F605D6A9341E0C41AD108A901BC0154
:101BB200E4CF98012C0D3D1D121613064CF31C1494
:101BC2001D0434F48114910419F702C080E090E0FE
:101BD200AB2B31F4F701208131812F7E31832083B9
:0A1BE200CDB7DEB7E0E10C94AF12BE
:101BEC00CF93DF9389B1829581704D998260E0919A
:101BFC0088048E17C9F08093880494E0E99FF00163
:101C0C001124E82BF0E0E65BFB4F208190918704D8
:101C1C00920F833019F09093870406C010928704BA
:101C2C0092306CF59F3F6CF14E9908C087E893E1B8
:101C3C000197F1F700C000004E9B25C0049908C025
:101C4C0087E893E10197F1F700C00000049B1DC0E9
:101C5C0086E00E94C812EC0187E00E94C8129C0129
:101C6C00C436D105A0F0C538D34098F424363105DC
:101C7C0090F081E02538334078F480E00DC087E0A7
:101C8C000BC086E009C088E007C085E005C084E091
:0E1C9C0003C083E001C082E0DF91CF91089584
:101CAA00EAE5F4E01082118212821382148215820C
:101CBA0016821782108611861286138662ED87EBCA
:101CCA000E94601360E880E10E94601360E881E18D
:101CDA000E94601360E882E10E94601360E883E179
:101CEA000E94601360E884E10E94601360E885E165
:101CFA000E94601360E886E10E94601360E887E151
:101D0A000E9460136CE080E10E9460136CE081E144
:101D1A000E9460136CE082E10E9460136CE083E130
:101D2A000E9460136CE084E10E9460136CE085E11C
:101D3A000E9460136CE086E10E9460136CE087E108
:101D4A000E94601385E90E948910682F6F7785E9E0
:061D5A000E9460130895D1
:101D6000A2E0B0E0E6EBFEE00C947A124C016B01CD
:101D7000FB012281338164807580808191819A8307
:101D80008983A680B78037FD03C08D7F9A838983BE
:101D9000FA014081518162817381CE0101967C01FB
:101DA00008E010E09301C6010E94910D298124FFF3
:101DB00006C00197F501E80FF91F20E32083298170
:101DC00023FF06C00197F501E80FF91F20E22083E9
:101DD00009811A81F6014085518541505109481BFE
:101DE000590BB501680F791F9301C4010E9450106F
:101DF0009C01F4018081918190FF06C0F6018281EF
:101E00009381821793070CF4C9012296EEE00C949B
:021E1000B1120D
:101E12000F931F93CF93DF93DB01109719F48FEF8A
:101E22009FEF3DC02D913C91119730FF25C0169632
:101E32004D915C91179714962D913C9115974217ED
:101E4200530778F41296ED91FC91139780831296C2
:101E52002D913C9113972F5F3F4F13963C932E93F6
:101E6200129716962D913C9117972F5F3F4F179619
:101E72003C932E93169713C01C96ED91FC911D97DF
:101E8200309769F2EB01092F182F0995892B39F642
:101E92008E819F8101969F838E83812F902FDF9168
:081EA200CF911F910F910895EB
:101EAA00A2E0B0E0EBE5FFE00C947A125C016B0172
:101EBA00FB012281338184809580808191819A837C
:101ECA0089836680778037FD03C08D7F9A838983F3
:101EDA00FA014081518162817381CE0101967C01B0
:101EEA000AE010E09401C6010E94910D09811A814D
:101EFA00F6014085518541505109481B590BB301E0
:101F0A00680F791F9401C5010E9450109C01F501C8
:101F1A008081918190FF06C0F601828193818217A8
:0E1F2A0093070CF4C9012296EEE00C94B1125C
:101F3800FF920F931F93CF93DF93C0EEC20FC0366B
:101F480070F5F02ED82F0E94F8120E940F138D2FD3
:101F58000E94981380E40E94F613D0E08E01000FCF
:101F6800111F0C0F1D1F000F111F0E5F1E4F219612
:101F78009E01220F331FC20FD31FCC0FDD1FCE5F70
:101F8800DE4FF80181918F01F1E0FF1201C08095C9
:101F98000E94F6130C171D07A1F70E948014DF9109
:0A1FA800CF911F910F91FF90089553
:101FB200E89409C097FB3EF49095809570956195E1
:101FC2007F4F8F4F9F4F9923A9F0F92F96E9BB2797
:101FD2009395F695879577956795B795F111F8CF13
:101FE200FAF4BB0F11F460FF1BC06F5F7F4F8F4F7E
:101FF2009F4F16C0882311F096E911C0772321F074
:102002009EE8872F762F05C0662371F096E8862F0B
:1020120070E060E02AF09A95660F771F881FDAF762
:0A202200880F9695879597F90895A9
:10202C00A0E1B0E0ECE1F0E10C948212FB01BA010A
:10203C00AE014F5F5F4F7A0140E1D7011D924A9587
:10204C00E9F742E051E05A8349839C838B83F7FF85
:10205C0009C08FE490E090930101809300018FEF11
:10206C009FEF14C0A9018C013197FE83ED83C7014A
:10207C000E94E0124F8158852D813E8142175307F3
:10208C0008F49A01F801E20FF31F10826096E6E063
:04209C000C94B912D5
:1020A000A0E0B0E0E6E5F0E10C947C126C015B018D
:1020B0007A01E901480181E08822992400FD03C0EA
:1020C0004217530750F0A701B501C6010E945912EB
:1020D000EC16FD0610F0C70117C08E010E191F097E
:1020E0000115110541F0B60180E290E00E94090F50
:1020F00001501109F5CF8114910429F4A701B5010C
:10210000C6010E945912CE01CDB7DEB7ECE00C94A7
:02211000B31208
:102112001F93CF93DF9300D00F92CDB7DEB7182F66
:102122000E940F1380E60E94981389838981883167
:10213200B9F4812F0E94F6138A838A81883291F43E
:102142000E942F1480E60E94CA138B838B818034F5
:1021520059F40E94031489830E948014898105C066
:102162008FEF03C08FEF01C08FEF0F900F900F9092
:08217200DF91CF911F91089548
:10217A00A2E8B0E0E3ECF0E10C947C125C014A01C5
:10218A007A836983C12CD12CE981FA8180818823E1
:10219A00E9F07401860120E830E0AE014D5F5F4F3F
:1021AA00BE016F5F7F4FC5010E94B0008C0D9D1D5F
:1021BA008C159D054CF48FE490E090930101809377
:1021CA0000018FEF9FEF03C06C01DECFC601CE572F
:0821DA00DF4FECE00C94B3129E
:1021E2001F93CF93DF93C82F162F61E20E944C13E7
:1021F20060E08C2F0E944C136FE78C2F0E944C13CF
:1022020062E28C2F0E944C1360E08C2F0E944C13D0
:1022120067E08C2F0E944C130E940F138C2F0E9498
:10222200981380E40E94F613C0E0D4E0812F0E944C
:10223200F6132197D9F70E948014DF91CF911F9155
:022242000895FD
:102244000E94DE1188F09F5798F0B92F9927B75153
:10225400B0F0E1F0660F771F881F991F1AF0BA9546
:10226400C9F714C0B13091F00E946614B1E008952A
:102274000C946614672F782F8827B85F39F0B93F1C
:10228400CCF3869577956795B395D9F73EF49095F9
:0E2294008095709561957F4F8F4F9F4F0895F5
:1022A200DC01ED91FC91119780818A3221F080E06E
:1022B20090E03AE00EC03196ED93FC93DB01ED9194
:1022C200FC911197CF0102968D939C93808191810D
:1022D2000895ED91FC911197208120532A3068F4E2
:1022E200389FA001399F500D1124CA01820F911D00
:0C22F20031961196FC93EE93ECCF08950A
:1022FE00CF92DF92EF92FF920F931F93CF93DF93C4
:10230E00D82EC62F142F7901C02EF9012081222339
:10231E0099F0D0E00C2D412F6C2F8D2D0E949C0F2B
:10232E00CA5FC93710F01F5FC0E0DF5FF701ED0F26
:10233E00F11D20812111EECFDF91CF911F910F91D1
:0A234E00FF90EF90DF90CF9008950C
:10235800A0E0B0E0E2EBF1E10C947E127C01FB011D
:10236800EA01C901A280B380C480D58000811181AF
:10237800209711F4CEE6D4E0009719F4CE010E941C
:10238800E813B7FC04C0A816B90608F4C5019601FD
:10239800AC01BE01C7010E945010CDB7DEB7EAE01C
:0423A8000C94B512CA
:1023AC0057FD9058440F551F59F05F3F71F04795FA
:1023BC00880F97FB991F61F09F3F79F087950895DF
:1023CC00121613061406551FF2CF4695F1DF08C0FE
:1023DC00161617061806991FF1CF8695710561051B
:0423EC0008940895B4
:1023F000A1E21A2EAA1BBB1BFD010DC0AA1FBB1F09
:10240000EE1FFF1FA217B307E407F50720F0A21B7A
:10241000B30BE40BF50B661F771F881F991F1A94E7
:1024200069F760957095809590959B01AC01BD0111
:04243000CF0108953B
:10243400CF93DF93EC0190E0E92FF0E0EE0FFF1F64
:10244400EC5CFB4F8081811102C081810EC0A881A8
:10245400B9812C91821305C091811196B983A88307
:1024640001C09F5F9B3040F3892FDF91CF91089586
:102474000E940E140C98149A87B18F7887B98BB187
:1024840080678BB9109288044C9B03C081E08093D1
:1024940088044D9B05C080918804826080938804E1
:0E24A40089B18695869583708093880408958B
:1024B200A0E0B0E0EFE5F2E10C9480126C01EB01D8
:1024C2008A017B01E40EF51ECE15DF0541F08991EC
:1024D200B601082E000C990B0E94090FF5CFC80116
:0A24E200CDB7DEB7E8E00C94B712A6
:1024EC002F923F924F925F926F927F928F929F9218
:1024FC00AF92BF92CF92DF92EF92FF920F931F9306
:10250C00CF93DF93CDB7DEB7CA1BDB0B0FB6F894B6
:08251C00DEBF0FBECDBF099424
:1025240090918604992369F02091850428130BC0A7
:10253400913059F0923059F4223059F0809181044D
:10254400089580E0089580E0089581E0089580E092
:06255400089580E00895E7
:10255A002A88398848885F846E847D848C849B8429
:10256A00AA84B984C884DF80EE80FD800C811B8137
:10257A00AA81B981CE0FD11D0FB6F894DEBF0FBE66
:06258A00CDBFED01089534
:10259000ECE7F0E09081907F8770892B808386E064
:1025A0008A95F1F700C0EAE7F0E0808180648083DB
:1025B000808186FDFDCF809178009091790008950B
:1025C000A2E0B0E0E6EEF2E10C9484128C015A83B2
:1025D0004983AE014F5F5F4F0E94BD10F80120811B
:1025E00024FF02C08FEF9FEF2296E4E00C94BB1211
:1025F000CF93DF93D82FC62F60EB640F0E944C134C
:102600006C2F6F708D2F0E944C136C2F62956F7022
:0E261000605F8D2F0E944C13DF91CF910895D3
:10261E00CF93DF930F92CDB7DEB7198284EA809302
:10262E00BC00ECEBF0E080818823ECF78091B900E0
:0A263E0089830F90DF91CF9108957A
:10264800CF93DF93D82FC62F0E940F1380E60E94E6
:1026580098138D2F0E94F6138C2F0E94F6130E9458
:082668008014DF91CF91089569
:1026700087B1836087B988B18C7F88B987B18C7F37
:1026800087B91092B90082E08093B800ECEBF0E0DB
:082690008081846080830895BD
:10269800CF93DF93D82FC62F0E940F138D2F0E9440
:1026A800981380E00E94F6138C2F0E94F6130E9464
:0826B8008014DF91CF91089519
:1026C000CF93DF93D82FC62F0E940F1380E60E946E
:1026D00098138D2F0E94F6138C2F0E94F6130E94E0
:0826E0008014DF91CF910895F1
:1026E800A0E0B0E0EAE7F3E10C948612AE01475FA0
:1026F8005F4F6F8178858D819E810E946D14E2E025
:042708000C94BD125E
:10270C00A0E0B0E0ECE8F3E10C948612AE01475F78
:10271C005F4F6F8178858D819E810E946D14E2E000
:04272C000C94BD123A
:10273000880F8093BB0084E88093BC00ECEBF0E052
:1027400080818823ECF7E9EBF0E0808180818E7F47
:022750000895EA
:10275200092E0394000C11F4882352F0BB0F40F4AD
:10276200BF2B11F460FF04C06F5F7F4F8F4F9F4FED
:022772000895C8
:10277400DB018F939F930E941914BF91AF91A29F85
:10278400800D911DA39F900DB29F900D112408956B
:10279400880F81608093BB0084E88093BC00ECEBDD
:0E27A400F0E080818823ECF78091B900089561
:1027B200A29FB001B39FC001A39F700D811D112480
:0E27C200911DB29F700D811D1124911D08956F
:1027D000FC01AF014F5F5F4F2081222311F0FA010E
:0C27E000F8CF9F01281B390BC901089598
:1027EC008093BB0084E88093BC00ECEBF0E080812C
:0A27FC008823ECF78091B9000895DE
:1028060084E88093BC00ECEBF0E080818823ECF751
:062816008091BB00089553
:10281C00ECE7F0E0808180648083EAE7F0E080817F
:06282C0087688083089517
:102832000E94D913A59F900DB49F900DA49F800D67
:06284200911D1124089510
:10284800EC010E9498140E949714CE010E949914DA
:06285800CE010E94951460
:10285E0084EA8093BC00ECEBF0E080818823ECF7F7
:02286E000895CB
:102870009C01215631092A31310510F48F759927B1
:022880000895B9
:1028820061E08627682F619583E00E9460130895B6
:102892009C01215431092A31310508F480620895DE
:0E28A2005058BB27AA270E942A0D0C94A91398
:0E28B00000240A941616170618060906089545
:0E28BE0000240A941216130614060506089547
:0E28CC00E894BB2766277727CB0197F908957C
:0E28DA009A01AB016FEF7FE70E941610089580
:0C28E80097F99F6780E870E060E00895B9
:0C28F400EE0FFF1F0590F491E02D0994F9
:0829000084E98093BC000895F6
:0829080060E00E94F110089547
:082910000E94820B0C94A91334
:082918000E94F10B0C94A913BD
:062920009FEF80EC08951A
:042926000C9400000D
:04292A000E94AE0059
:02292E0008950A
:02293000089508
:02293200089506
:102934000000000000000000002F0000000007005D
:102944000700147F147F1400242A7F2A1200231303
:102954000864620036495522500000050300000057
:10296400001C224100000041221C000014083E0803
:10297400140008083E080800000050300000101041
:102984001010100000606000000020100804020015
:102994003E5149453E0000427F400000426151499A
:1029A40046002141454B31001814127F1000274581
:1029B400454539003C4A4949300001710905030085
:1029C400364949493600064949291E000036360071
:1029D40000000056360000000814224100001414C0
:1029E40014141400004122140800020151090600C5
:1029F400324959513E007E1111117E007F494949E7
:102A040036003E41414122007F4141221C007F4962
:102A1400494941007F09090901003E4149497A00B9
:102A24007F0808087F0000417F4100002040413FAB
:102A340001007F08142241007F40404040007F0293
:102A44000C027F007F0408107F003E4141413E009C
:102A54007F09090906003E4151215E007F091929B9
:102A6400460046494949310001017F0101003F40C8
:102A740040403F001F2040201F003F4038403F009F
:102A8400631408146300070870080700615149457E
:102A94004300007F4141000002040810200000416F
:102AA400417F000004020102040040404040400015
:102AB4000001020400002054545478007F48444428
:102AC4003800384444442000384444487F00385493
:102AD40054541800087E090102000C5252523E0060
:102AE4007F080404780000447D4000002080443DB9
:102AF40000007F102844000000417F4000007C0457
:102B0400180478007C0804047800384444443800ED
:102B14007C1414140800081414187C007C080404A1
:102B24000800485454542000043F444020003C40D2
:102B340040207C001C2040201C003C4030403C00D5
:102B44004428102844000C5050503C004464544C19
:102B5400440000083641000000007F0000000041EE
:0A2B640036080000100808100800F1
:102B6E002530326C752E2530336C752E2530336C36
:102B7E007520487A0052580054580055534552005B
:102B8E0055534220004D6F64653A205B25735D20DE
:102B9E00202020004374726C3A205B25735D202048
:102BAE000043757272656E7420467265713A20200C
:102BBE002020200053454C4543540049444C4520A9
:102BCE0020004544495420200053746174653A2016
:102BDE0025730020202020202020202020202020AF
:102BEE00202020004A4F593A205550004A4F593A5A
:102BFE0020444F574E004A4F593A204C45465400F8
:102C0E004A4F593A205249474854004A4F593A20A0
:102C1E00505245535300454E433A204357203E3EB3
:102C2E0000454E433A203C3C2043435700454E431B
:082C3E003A20505245535300A7
:102C46008096980040420F00A086010010270000E1
:102C5600E8030000640000000A0000000100000014
:102C660068076C094C836A9074A07AC000806888F3
:062C760000846C82008165
:102C7C0000FF0100010000FFFF0000010001FF0048
:082C8C0000010304050708091B
:072C9400286E756C6C29002D
:062C9B00286E696C29009F
:042CA100809FD5003B
:012CA500012D
:012CA600012C
:012CA7000329
:00000001FF
