:100000000C948F000C94D1160C94D1160C94D1162C
:100010000C94D1160C94D1160C94D1160C94D116C4
:100020000C94D1160C94D1160C94D1160C94D116B4
:100030000C94D1160C94D1160C94D1160C94D116A4
:100040000C94D1160C94D1160C94D1160C94D11694
:100050000C94D1160C94D1160C94D1160C94D11684
:100060000C94D1160C94D1160C94D1160C94D11674
:100070000C947B120C94D1160C94D1160C94D116BE
:100080000C94D1160C94D1160C94D1160C94D11654
:100090000C94D1160C94D1160C94D1160C94D11644
:1000A0000C94D1160C94D1160C94D1160C94D11634
:1000B0000C94D1160C94D1160C94D1160C94D11624
:1000C0000C94D1160C94D1160C94D116460B4F0BF0
:1000D000580B610B6A0B730B7C0B850B0100010243
:1000E00080010204C2002DB004C204E28004E205D3
:1000F000080031700508051480051405310031969B
:100100000531053380053305350031B30535053A32
:1001100080053A053B0031B5053B053D80001124C3
:100120001FBECFEFD8E0DEBFCDBFECEDF0E041E089
:1001300017C0B591A59135912591059107FD0CC08A
:1001400095918591EF01F92FE82F05900D92A21757
:10015000B307D9F7FE0104C01D92A217B307E1F758
:10016000ED31F40731F70E9490040C945516F89481
:02017000FFCFBF
:10017200AEE0B0E0EFEBF0E00C948A144C016B01BE
:100182001A8219828FEF9FEF9C838B831E821D82BE
:1001920058874F833A872987A12CB12CD6016D90BD
:1001A2007C90F301EA0DFB1D808181110FC0D60105
:1001B200ED93FC938081853209F0D3C13F01BFEFFB
:1001C2006B1A7B0AF6017182608219C0853279F35B
:1001D200B401082E000C990B0E94C7104FEFA41A0D
:1001E200B40ADCCF8C32ACF08D32F9F489819A8179
:1001F20081609A8389833196D601ED93FC93D6016F
:10020200ED91FC9180818B3269F789819A818460BA
:10021200F0CF803221F489819A818860EACF8332DB
:1002220051F489819A818061E4CF803321F48981FC
:100232009A818260DECFB701C6010E9443139E837A
:100242008D8397FF0BC029813A81B1E02B273A8336
:1002520029839195819591099E838D8389819A81C4
:1002620080FF03C08D7F9A838983D601ED91FC9133
:10027200119780818E3249F43196ED93FC93B70148
:10028200C6010E9443139C838B83C6010E940C14F7
:10029200582ED601ED91FC918081082E000C990B0D
:1002A2000E948216893609F443C084F4833609F425
:1002B20002C134F4853209F427C18136E1F030C13C
:1002C2008436B1F188360CF4D9C02AC1803709F4DA
:1002D2009AC03CF48E3609F4BCC08F3609F461C072
:1002E2001FC1853709F440C0883709F476C08337C7
:1002F20009F016C1F3C0652D70E0A701CE010B967F
:100302000E940000892B09F426C1D601ED91FC91CF
:100312001197CF0101968D939C932081AE01455F89
:100322005F4FBE016F5F7F4FC4010E94000010C18A
:10033200652D70E0970141E050E0CE010B960E94DE
:10034200C90D892B09F407C1F601808191810196BB
:1003520091838083AE01455F5F4FBE016F5F7F4F28
:10036200C4010E940E0CF4C0652D70E0970140E0BC
:1003720050E0CE010B960E94C90D892B09F4EBC007
:10038200D6018D919C91119701968D939C93AE010C
:10039200455F5F4FBE016F5F7F4FC4010E94131123
:1003A200D7C0652D70E0970140E050E0CE010B967A
:1003B2000E94C90D892B09F4CEC0F601808191817A
:1003C200019691838083AE01455F5F4FBE016F5FEF
:1003D2007F4FC4010E941E10BBC0652D70E09701C3
:1003E20040E050E0CE010B960E94C90D892B09F422
:1003F200B2C0D601ED91FC911197CF0101968D9378
:100402009C9320811CC0970140E050E060EF70E0B7
:10041200CE010B960E94C90D892B09F49CC0F601EE
:10042200808191810196918380838B859C85892B24
:1004320029F420E030E043E255E084C028E7AE0131
:10044200455F5F4FBE016F5F7F4FC4010E949A08F4
:100452007FC0A501400F511F652D70E09701CE01AD
:100462000B960E940000892B09F475C0D6018D916C
:100472009C91119701968D939C9373C0652D70E0AA
:10048200A701CE010B960E940000892B09F463C0DC
:10049200D601ED91FC911197CF0101968D939C931A
:1004A2002081AE01455F5F4FBE016F5F7F4FC40188
:1004B2000E9400004DC0B0E85B124DC0F601808181
:1004C2009181019691838083D701ED91FC911197DF
:1004D200CF0102968D939C93808120C0B0E85B127D
:1004E2003AC0F60180819181019691838083D70180
:1004F200ED91FC911197CF0102968D939C934081CF
:10050200518120E030E01EC0B0E85B1224C0F60149
:10051200208131812F5F3F4F318320838B870DC034
:1005220085E28B87D6016D927C921A8219821E8295
:100532001D828FEF9FEF9C838B8321E030E0AE0121
:10054200455F5F4FBE016F5F7F4FC4010E949E13E4
:100552008A0D9B1D07C0F6018081918101969183CE
:0C0562008083C5012E96EFE00C94C114BC
:10056E003F924F925F926F927F928F929F92AF9235
:10057E00BF92CF92DF92EF92FF920F931F93CF9382
:10058E00DF93CDB7DEB764970FB6F894DEBF0FBE1C
:10059E00CDBF633008F0A5C129013A0194E0491A94
:1005AE00510861087108EDEF4E16E7E05E06610432
:1005BE00710408F096C125013601F1E04F1A510879
:1005CE00610871089FEF491659069FE0690671048C
:1005DE0008F087C1E114F104E0E10E07110508F0FF
:1005EE0080C1250136014701580169017A01162F94
:1005FE00082F81149104A104B10431F5F4E0CF1A4F
:10060E00D108E108FEEFFF0ACC0CDD1CEE1CFF1C2E
:10061E00CC0CDD1CEE1CFF1CCC0CDD1CEE1CFF1CE0
:10062E00CC0CDD1CEE1CFF1CCC0CDD1CEE1CFF1CD0
:10063E00CC0CDD1CEE1CFF1CCC0CDD1CEE1CFF1CC0
:10064E0040E050E0BA01DBC021E0421651046104E3
:10065E00710409F048C0D501C4010497A109BE4F29
:10066E00C80ED91EEA1EFB1ECC0CDD1CEE1CFF1C98
:10067E00CC0CDD1CEE1CFF1CCC0CDD1CEE1CFF1C80
:10068E00CC0CDD1CEE1CFF1CCC0CDD1CEE1CFF1C70
:10069E00CC0CDD1CEE1CFF1CCC0CDD1CEE1CFF1C60
:1006AE00B501A4014150510961097E4F440F551FF8
:1006BE00661F771F440F551F661F771F440F551F68
:1006CE00661F771F440F551F661F771F440F551F58
:1006DE00661F771F440F551F661F771F440F551F48
:1006EE00661F771F8CC0C301B2010E9497116987E4
:1006FE007A878B879C87C501B4010E949711298543
:10070E003A854B855C850E94C61620E030E040E0BD
:10071E0053E40E94CA160E949A0B6D877E878F87BC
:10072E00988BD701C601880F991FAA1FBB1F880F70
:10073E00991FAA1FBB1F880F991FAA1FBB1F880FC7
:10074E00991FAA1FBB1F880F991FAA1FBB1F880FB7
:10075E00991FAA1FBB1FBC01CD01660F771F881FF3
:10076E00991F0E9497112D853E854F8558890E94AD
:10077E008B1620E030E040E054E40E948A160E947E
:10078E0014136B017C01D501C401880F991FAA1F98
:10079E00BB1F880F991FAA1FBB1F880F991FAA1F67
:1007AE00BB1F880F991FAA1FBB1F880F991FAA1F57
:1007BE00BB1F880F991FAA1FBB1FBC01CD01660F5F
:1007CE00771F881F991F0E949711698B7A8B8B8BCD
:1007DE009C8B2D853E854F85588969857A858B85BD
:1007EE009C850E94CA169B01AC0169897A898B8906
:1007FE009C890E948A160E941413AB01BC01113011
:10080E0049F018F0123059F00FC00F2EFAE23F2EB9
:10081E00F02D0BC00F2EF2E33F2EF02D06C00F2E43
:10082E00FAE33F2EF02D01C0312C59824A82D701B6
:10083E00C601A37024E0129FF0011124E85FFA4F65
:10084E002081822F8A2B8B83DC82CD82D301C20141
:10085E0088279927AF70BB27072E7CE0B695A79502
:10086E00979587957A95D1F7702D6A017B01EFE008
:10087E00EE228E298E835F8348870E94201580E6A4
:10088E000E94A915832D0E942716CE0101967C0188
:10089E006E0199E0C90ED11CF70181917F010E9472
:1008AE002716EC14FD04C1F70E94BE16013011F498
:1008BE006FE201C06FE089288A288B2809F46064F2
:1008CE00113041F018F0123049F00BC080E10E9457
:1008DE00711507C081E10E94711503C082E10E946B
:1008EE00711564960FB6F894DEBF0FBECDBFDF91C3
:1008FE00CF911F910F91FF90EF90DF90CF90BF900F
:10090E00AF909F908F907F906F905F904F903F90A1
:02091E0008953A
:100920000E94BA15789486E894E00E94FB150E9414
:1009300049150E942C140E94C30F609129057091E3
:100940002A0580912B0590912C050E94880981E051
:100950000E9472168CE30E94310E8CE30E94C21634
:100960008DE30E94310E8DE30E94C216249A2C9AC8
:100970000E94800C80E00E94F90AD0E010E06894A8
:10098000DD24D1F8EE24E394F12C0F2E812CF2E13A
:100990009F2EFAE7AF2EB12CF02D0E94640FC82FC6
:1009A00080913B058823C1F082EC94E00E943706D9
:1009B000012F2FEA33E046E0612F8CE30E94711390
:1009C00001E022EC34E046E0612F8CE30E947113D9
:1009D0000E94B91691E001C0912F809138058130B5
:1009E00079F018F0823091F1FCC08FEF8C0F8430D9
:1009F00008F015C181E0809338051093370517C1C1
:100A0000C13049F480913705882309F410C1815021
:100A1000809337050CC1C23049F48091370582308C
:100A200008F005C18F5F8093370501C1C53009F01B
:100A3000F6C0D092380581E0809334058093330569
:100A4000F0923205E092310591E0E9C080913705DE
:100A5000823028F52AEF2C0F223008F0F9C08111DE
:100A60000CC081E0909136059111812F809336055D
:100A7000811102C02C9A01C02C98809137058130D9
:100A800031F4909135059111812F8093350581E0E6
:100A90008093330510923205109231059BC082304D
:100AA00009F0D6C0C33079F480913405882319F059
:100AB00081508093340581E0809333051092320594
:100AC00010923105CFC0C43079F48091340587305D
:100AD00018F48F5F8093340581E080933305109282
:100AE000320510923105BEC08AEF8C0F823008F0BB
:100AF000AFC0E091340524E0E29FF0011124EE55EF
:100B0000FB4F4081518162817381C63049F58091EC
:100B1000290590912A05A0912B05B0912C05480F2D
:100B2000591F6A1F7B1F413084E2580784EF680712
:100B3000710548F44093290550932A0560932B05CD
:100B400070932C0536C080E094E2A4EFB0E080936F
:100B5000290590932A05A0932B05B0932C0529C055
:100B60008091290590912A05A0912B05B0912C0523
:100B70002A013B0122E1520E2AE7621E711C8415F4
:100B80009505A605B70568F0841B950BA60BB70B5A
:100B90008093290590932A05A0932B05B0932C05EB
:100BA00008C08092290590922A05A0922B05B09248
:100BB0002C056091290570912A0580912B05909153
:100BC0002C050E94880981E080933305109232053C
:100BD00010923105C83009F045C081E08093380596
:100BE00026C0809138058230D1F401C091E0209177
:100BF0003105309132052F5F3F4F309332052093FE
:100C000031052035310558F09091330581E0892771
:100C100080933305109232051092310508C091116E
:100C200006C0C11118C0DF5FD233C0F40AC00E94F1
:100C3000800CCC2329F08C2F0E94F90AD0E001C04F
:100C4000D0E083EF91E00197F1F700C00000A5CE5E
:100C5000C83069F6C2CF0E94800CEDCF0E94800C94
:0E0C6000D0E0EFCF80913805823009F7BFCF8A
:100C6E000F931F93CF93DF93CDB7DEB7C054D10947
:100C7E000FB6F894DEBF0FBECDBF8C0142E050E040
:100C8E0064E573E00E944B14892B91F5F801828183
:100C9E008B33F1F481E090E020913605213009F09C
:100CAE0080E09F938F9384E194E09F938F938E01C6
:100CBE000F5F1F4F1F930F930E948515C8010E944F
:100CCE00FB150F900F900F900F900F900F9005C186
:100CDE0090ED980F923008F000C1813329F481E035
:100CEE00809336052C98F9C0109236052C9AF5C0D3
:100CFE0042E050E06AE174E0C8010E944B14892B77
:100D0E0009F03FC0F80182818B3301F580912C05EB
:100D1E008F9380912B058F9380912A058F938091CD
:100D2E0029058F938DE194E09F938F938E010F5F32
:100D3E001F4F1F930F930E948515C8010E94FB152C
:100D4E000FB6F894DEBF0FBECDBFC7C0C801029666
:100D5E000E9477108B019C01005412442F403109E0
:100D6E00013411482A4B314008F0B7C06093290571
:100D7E0070932A0580932B0590932C050E94880969
:100D8E00ACC042E050E066E274E0C8010E944B1431
:100D9E00892B89F5F80182818B3301F5809130051D
:100DAE008F9380912F058F9380912E058F93809135
:100DBE002D058F9389E294E09F938F938E010F5FA1
:100DCE001F4F1F930F930E948515C8010E94FB159C
:100DDE000FB6F894DEBF0FBECDBF7FC0C80102961E
:100DEE000E94771060932D0570932E0580932F052A
:100DFE009093300572C043E050E062E374E0C801A6
:100E0E000E944B14892B01F580912C058F938091B4
:100E1E002B058F9380912A058F93809129058F93AF
:100E2E0086E394E09F938F938E010F5F1F4F1F9366
:100E3E000F930E948515C8010E94FB150FB6F894FA
:100E4E00DEBF0FBECDBF49C043E050E06FE474E09B
:100E5E00C8010E944B14892B29F483E594E00E946B
:100E6E00FB153BC044E050E06BE574E0C8010E9406
:100E7E004B14892B29F480E694E00E94FB152DC0BB
:100E8E0044E050E066E674E0C8010E944B14892BE2
:100E9E0029F48BE694E00E94FB151FC044E050E05D
:100EAE0063E774E0C8010E944B14892B29F488E78C
:100EBE0094E00E94FB1511C042E050E06EE774E032
:100ECE00C8010E944B14892B41F4F80182818B33A7
:100EDE0021F481E894E00E94FB15C05CDF4F0FB651
:100EEE00F894DEBF0FBECDBFDF91CF911F910F9152
:020EFE00089555
:100F00004F925F926F927F928F929F92AF92BF9219
:100F1000CF92DF92EF92FF920F931F93CF93DF93C5
:100F2000CDB7DEB72A970FB6F894DEBF0FBECDBFA0
:100F300089876A8729013A0147015801862F8F5016
:100F40008C3408F0E0C0D801C7010197A109B109AC
:100F50008F3F9F4FAF40B10508F0D5C041145104F9
:100F600080E16806710408F0CEC0411451046104A8
:100F7000710479F4C62ED12C24E0C21AD108D6947B
:100F8000DC2CCC24D794C7940D2C000CEE08FF0861
:100F900071C0C801B7010E94971169837A838B835E
:100FA0009C83C301B2010E94971129813A814B8130
:100FB0005C810E94C61620E030E040E053E40E94CD
:100FC000CA160E949A0B6D837E838F8398879A85B9
:100FD00080E8989FB0011124072E000C880B990B14
:100FE0000E9499112D813E814F8158850E948B1658
:100FF00020E030E040E054E40E948A160E9414137E
:101000006B017C01D301C201880F991FAA1FBB1F6E
:10101000880F991FAA1FBB1F880F991FAA1FBB1FEC
:10102000880F991FAA1FBB1F880F991FAA1FBB1FDC
:10103000880F991FAA1FBB1FBC01CD01660F771F28
:10104000881F991F0E9497112B013C012D813E8121
:101050004F81588569817A818B819C810E94CA1653
:101060009B01AC01C301B2010E948A160E941413B5
:101070002B013C012985222319F082E2898302C0D9
:101080009AE19983692D89810E947115682D898162
:101090008F5F0E947115D701C60188279927A37019
:1010A000BB27BD018827992789818E5F0E94711512
:1010B0006D2D89818D5F0E9471156C2D89818C5FEA
:1010C0000E947115882499242FE0A222BB24072EA8
:1010D0007CE0B694A794979487947A95D1F7702D75
:1010E000D301C201AF70682D6A2B89818B5F0E948A
:1010F0007115652D89818A5F0E947115642D898122
:10110000895F0E9471152A960FB6F894DEBF0FBE54
:10111000CDBFDF91CF911F910F91FF90EF90DF90A6
:10112000CF90BF90AF909F908F907F906F905F9087
:041130004F9008953F
:10113400AFE0B0E0E0EAF8E00C9487141C016B0126
:101144005A8349832B83FB01828193818480958018
:1011540000811181A680B78097FD02C00D7F02C077
:1011640081E090E0E981FA8140805180628073805F
:101174009801207133273D832C83740104FF08C038
:10118400411451046104710419F032E0E31AF108C6
:10119400F801E870FF27FF83EE8303FF03C0F1E04B
:1011A400EF1AF108F6010084F185E02D3197FF87ED
:1011B400EE87EA0DFB1D10829C012E193F09398729
:1011C4002887C801827099279B878A87EB818E2F95
:1011D400EE0F990B9C01215431093D872C872E85F4
:1011E4003F852230310530F48C819D81892B09F0B3
:1011F40042C05CC0411451046104710461F18E85E4
:101204009F8501979F878E87C2018F7099278A30A7
:10121400910514F4C09602C0895A9F4FEC85FD8550
:101224007A9748F49C012062215631092A3131050C
:1012340010F40E946916EE85FF85EA0DFB1D80837C
:10124400F1E0EF1AF10884E0769467945794479498
:101254008A95D1F7C4CF888599858E0D9F1D181660
:1012640019066CF21E141F040CF0BECFEA85FB8530
:10127400EF2B29F6B9CFE981FA8180819181A2818E
:10128400B381892B8A2B8B2B89F0EE85FF85EA0DA0
:10129400FB1D31972B8120838E859F8502979F8725
:1012A4008E87FC01EA0DFB1D80E38083EE81FF81C4
:1012B400EF2B59F02E853F85215031093F872E872A
:1012C400F901EA0DFB1D80E28083F601408551851A
:1012D400415051092E853F85421B530BB9016A0DBC
:1012E4007B1D9401C1010E940E129C01F1018081B9
:1012F400918190FF06C0F601828193818217930742
:0C1304000CF4C9012F96E2E10C94BE1419
:101310004F925F926F927F928F929F92AF92BF9205
:10132000CF92DF92EF92FF920F931F936B017C019C
:1013300060E076E483EC93E2A70196010E94EA1351
:1013400029013A01DA01C90183709927AA27BB272D
:10135000892B8A2B8B2B79F08FEF481A580A680A51
:10136000780AD301C20183709927AA27BB27892B4A
:101370008A2B8B2B89F7A7019601C301B2010E942A
:10138000DC15AB01BC014115E6E45E07E3EC6E073A
:10139000E3E27E0760F5CC0CDD1CEE1CFF1CCC0CE0
:1013A000DD1CEE1CFF1C4C0D5D1D6E1D7F1D882479
:1013B000992454018C189D08AE08BF0802C0AC01E6
:1013C000BD0184E0480E511C611C711CDB01CA0187
:1013D0008C0D9D1DAE1DBF1D8C019D01080D191D9D
:1013E0002A1D3B1D01151644234C334240F3CB010B
:1013F000BA0120E438E74DE751E00E94EA13D22E0B
:1014000029E130E040E050E00E94EA1310E4E12ED0
:1014100012E4F12E0FE010E06D2D80E00E948007B5
:10142000A12CB12C6501A394E12CF12C8701A3011F
:10143000920160E080E00E94B702A301920161E0A6
:1014400080E00E94B7026FE480E10E9435156FE4EE
:1014500081E10E94351560E882E10E9435156CEF4C
:1014600083E00E94351560E085EA0E943515642D01
:1014700086EA0E94351560E281EB0E9435151F91C6
:101480000F91FF90EF90DF90CF90BF90AF909F9023
:0C1490008F907F906F905F904F900895B8
:10149C004F925F926F927F928F929F92AF92BF9278
:1014AC00CF92DF92EF92FF920F931F93CF93DF9324
:1014BC00CDB7DEB764970FB6F894DEBF0FBECDBFC5
:1014CC00E82E4090290550902A0560902B057090CD
:1014DC002C050F2EF8EE8F2EF3E09F2EA12CB12CA5
:1014EC00F02DC301B201A50194010E94EA139F9350
:1014FC008F937F936F93C301B20120E432E44FE0EA
:10150C0050E00E94EA13122F032FF42ED52EA501C2
:10151C0094010E94EA135F934F933F932F93DF92B2
:10152C00FF920F931F938CE393E09F938F93CE01C5
:10153C0001969F938F930E94971529810FB6F8946B
:10154C00DEBF0FBECDBF2223B9F110E0F12CD12CA0
:10155C00CC24C39480913805813039F40C2D8091C2
:10156C0037058230C1F00D2D16C0823079F4809190
:10157C003705823069F4E0913405F0E0EC5EFA4F07
:10158C008081811307C00091330505C00D2D03C068
:10159C000D2D01C00D2D4E2D6F2D8DE30E945A1176
:1015AC0096E0F90E1F5FE1E0F0E0EC0FFD1FE10F9C
:1015BC00F11D20812111CECF64960FB6F894DEBFB9
:1015CC000FBECDBFDF91CF911F910F91FF90EF9088
:1015DC00DF90CF90BF90AF909F908F907F906F9047
:0615EC005F904F9008958E
:1015F200EF92FF920F931F93CF93DF93CDB7DEB796
:1016020064970FB6F894DEBF0FBECDBF182F80913E
:101612003805813029F0823031F48EE993E005C03B
:1016220080E993E002C087E993E09F938F9385EA74
:1016320093E09F938F93CE0101967C019F938F93AA
:101642000E94851500E0970140E061E08CE30E9472
:1016520071130F900F900F900F900F900F90112316
:1016620009F45AC02FEA33E042E061E08CE30E94C1
:101672007113812F90E0FC013197E830F10508F0F9
:101682004BC0EA59FF4F0C94B31601E020EC33E053
:1016920043E060E08CE30E9471133EC001E028EC5D
:1016A20033E043E060E08CE30E94711335C001E057
:1016B20022ED33E043E060E08CE30E9471132CC022
:1016C20001E02CED33E043E060E08CE30E94711313
:1016D20023C001E027EE33E043E060E08CE30E94A8
:1016E20071131AC001E022EF33E043E060E08CE3C3
:1016F2000E94711311C001E02DEF33E043E060E07E
:101702008CE30E94711308C001E029E034E043E059
:1017120060E08CE30E94711364960FB6F894DEBF0A
:101722000FBECDBFDF91CF911F910F91FF90EF9030
:02173200089518
:101734008F929F92AF92BF92CF92DF92EF92FF92DD
:101744000F931F938B019C011127032F000F111F6F
:1017540027FB00F9222733271127A8014F575109E6
:10176400473151050CF045C057FD2DC00FEF1FEF59
:101774002FE730E004C035952795179507954A95CE
:10178400D2F74801590186229722A822B922892832
:101794008A288B2871F197FF07C0DC01CB01800FE9
:1017A400911FA21FB31F02C0DC01CB01009510954D
:1017B4002095309580239123A223B323482F392FDA
:1017C4002A2F5B2F1AC097FF0FC08B019C01000FBB
:1017D400111F221F331F012B022B032B51F040E05A
:1017E40030E020E85FEB09C040E030E020E050E06A
:1017F40004C0462F372F282F592F642F732F822F81
:10180400952F1F910F91FF90EF90DF90CF90BF9095
:08181400AF909F908F900895A2
:10181C00A2E0B0E0E4E1FCE00C9487143C016B0125
:10182C00FB0122813381A480B580808191819A83D0
:10183C00898386809780FA01208031804280538092
:10184C00B201A10157FE07C044275527BA0142191E
:10185C0053096409750937FD03C08D7F9A83898309
:10186C00950157FC05C0898182FD02C083FF02C02F
:10187C0021503109CE0101967C010AE010E0C6012D
:10188C000E94FF0E57FC03C0298122FF0AC001975A
:10189C00F401E80FF91F57FC02C02BE209C02DE23E
:1018AC0007C023FF06C00197F401E80FF91F20E2DF
:1018BC00208309811A81F6014085518541505109D7
:1018CC00481B590BB401680F791F9501C3010E9485
:1018DC000E129C01F3018081918190FF06C0F601EC
:1018EC0082819381821793070CF4C9012296E2E15D
:0418FC000C94BE1476
:10190000EF92FF920F93CF93DF93CDB7DEB764973B
:101910000FB6F894DEBF0FBECDBF80913605882389
:1019200019F084E593E002C081E593E09F938F93E3
:1019300081E693E09F938F93CE0101967C019F9364
:101940008F930E94851580E00E94A314082F9701B1
:1019500040E060E08DE30E9471130F900F900F90B4
:101960000F900F900F9080913505882319F08CE52A
:1019700093E002C087E593E09F938F9380E793E025
:101980009F938F93CE0101967C019F938F930E942A
:10199000851581E00E94A314082F970142E060E0C2
:1019A0008DE30E94711300E02DE733E044E060E036
:1019B0008DE30E94711386E00E944E0A0F900F90F3
:1019C0000F900F900F900F9064960FB6F894DEBFB3
:1019D0000FBECDBFDF91CF910F91FF90EF90089593
:1019E00010C00E94981658F00E94911640F029F4F9
:1019F0005F3F29F00C94AD1651110C94A0160C9475
:101A0000CE160E94C81368F39923B1F3552391F3BE
:101A1000951B550BBB27AA2762177307840738F05D
:101A20009F5F5F4F220F331F441FAA1FA9F335D0BA
:101A30000E2E3AF0E0E832D091505040E695001C6E
:101A4000CAF72BD0FE2F29D0660F771F881FBB1F28
:101A5000261737074807AB07B0E809F0BB0B802D06
:101A6000BF01FF2793585F4F3AF09E3F510578F032
:101A70000C94AD160C94A0165F3FE4F3983ED4F39B
:101A8000869577956795B795F7959F5FC9F7880F06
:101A9000911D9695879597F90895E1E0660F771F58
:101AA000881FBB1F621773078407BA0720F0621BE9
:0E1AB000730B840BBA0BEE1F88F7E0950895B8
:101ABE000FC00E94911638F00E94981620F09523C0
:101ACE0011F00C94AD160C94CE1611240C94A01695
:101ADE000E94C81370F3959FC1F3950F50E0551FE8
:101AEE00629FF001729FBB27F00DB11D639FAA2765
:101AFE00F00DB11DAA1F649F6627B00DA11D661FB4
:101B0E00829F2227B00DA11D621F739FB00DA11DD4
:101B1E00621F839FA00D611D221F749F3327A00D8E
:101B2E00611D231F849F600D211D822F762F6A2F2A
:101B3E0011249F5750409AF0F1F088234AF0EE0F8F
:101B4E00FF1FBB1F661F771F881F91505040A9F7BC
:101B5E009E3F510580F00C94AD160C94A0165F3F7D
:101B6E00E4F3983ED4F3869577956795B795F795F8
:101B7E00E7959F5FC1F7FE2B880F911D9695879570
:041B8E0097F9089526
:101B9200CF93DF93DC01F90168387105F1F05CF451
:101BA2006138710561F164387105A1F16038710520
:101BB20009F051C02FC0603C710509F441C0603F7B
:101BC2007105F1F1603A710509F045C0C081D1811A
:101BD200CE0102969183808325C0C081D181CE013E
:101BE200029691838083452B39F04881042E000CA4
:101BF200550B660B770B1CC0488150E029C0C08191
:101C0200D181CE01049691838083488159816A8172
:101C12007B810EC0C081D181CE01029691838083E7
:101C2200452BA1F048815981052E000C660B770BDC
:101C32004D935D936D937C93139781E090E00DC07B
:101C4200C081D181CE0102969183808348815981DE
:101C520060E070E0EDCF80E090E0DF91CF910895F9
:101C6200CF93C82F6EEA0E945D1565ED8C2F0E94FE
:101C72005D1560E88C2F0E945D1568EA8C2F0E942A
:101C82005D156FE38C2F0E945D1563ED8C2F0E9412
:101C92005D1560E08C2F0E945D1560E48C2F0E9420
:101CA2005D156DE88C2F0E945D1564E18C2F0E94FA
:101CB2005D1560E28C2F0E945D1560E08C2F0E9402
:101CC2005D1560EA8C2F0E945D1560EC8C2F0E94DE
:101CD2005D156AED8C2F0E945D1562E18C2F0E94CA
:101CE2005D1561E88C2F0E945D156FEC8C2F0E94B0
:101CF2005D1569ED8C2F0E945D1561EF8C2F0E949E
:101D02005D156BED8C2F0E945D1560E48C2F0E9497
:101D12005D1564EA8C2F0E945D1566EA8C2F0E9485
:0E1D22005D156FEA8C2F0E945D15CF9108951C
:101D300011C00E94911638F00E94981620F039F4D4
:101D40009F3F19F426F40C94CE160EF4E095E7FBB1
:101D50000C94AD16E92F0E94C81358F3BA17620706
:101D600073078407950720F079F4A6F50C949F1665
:101D70000EF4E0950B2EBA2FA02D0B01B9019001A6
:101D80000C01CA01A0011124FF27591B99F0593FEA
:101D900050F4503E68F11A16F040A22F232F342F32
:101DA0004427585FF3CF469537952795A795F04080
:101DB0005395C9F77EF41F16BA0B620B730B840B95
:101DC000BAF09150A1F0FF0FBB1F661F771F881F4D
:101DD000C2F70EC0BA0F621F731F841F48F48795A5
:101DE00077956795B795F7959E3F08F0B0CF939597
:0E1DF000880F08F09927EE0F979587950895B4
:101DFE00A0E0B0E0E5E0FFE00C948914DC012801DE
:101E0E001696AD90BC901797F7018081918112962E
:101E1E00ED91FC9113971896CD91DC91199721971E
:101E2E00F7FF02C0E1E0F0E0CA0DDB1D1882690188
:101E3E00A1E0B0E08F01021B130B4C01F2E08F22E8
:101E4E009924052C000C66087708CE018A199B0987
:101E5E00CA15DB0519F1411551056105710589F0AA
:101E6E00CB01BA01A30192010E94EA13CA01A62F67
:101E7E00B72F605D6A9341E0C41AD108A901BC0175
:101E8E00E4CF98012C0D3D1D121613064CF31C14B5
:101E9E001D0434F48114910419F702C080E090E01F
:101EAE00AB2B31F4F701208131812F7E31832083DA
:0A1EBE00CDB7DEB7E0E10C94C014CC
:101EC800CF93DF9389B1829581704D998260E091BB
:101ED8003A058E17C9F080933A0594E0E99FF0011E
:101EE8001124E82BF0E0E850FB4F20819091390550
:101EF800920F833019F09093390506C01092390576
:101F080092306CF59F3F6CF14E9908C087E893E1D9
:101F18000197F1F700C000004E9B25C0049908C046
:101F280087E893E10197F1F700C00000049B1DC00A
:101F380086E00E94D914EC0187E00E94D9149C0124
:101F4800C436D105A0F0C538D34098F424363105FD
:101F580090F081E02538334078F480E00DC087E0C8
:101F68000BC086E009C088E007C085E005C084E0B2
:0E1F780003C083E001C082E0DF91CF910895A5
:101F8600E8E0F5E010821182128213821482158233
:101F960016821782108611861286138662ED87EBEB
:101FA6000E94711560E880E10E94711560E881E188
:101FB6000E94711560E882E10E94711560E883E174
:101FC6000E94711560E884E10E94711560E885E160
:101FD6000E94711560E886E10E94711560E887E14C
:101FE6000E9471156CE080E10E9471156CE081E140
:101FF6000E9471156CE082E10E9471156CE083E12C
:102006000E9471156CE084E10E9471156CE085E117
:102016000E9471156CE086E10E9471156CE087E103
:102026000E94711585E90E944712682F6F7785E92E
:062036000E9471150895DF
:10203C00A2E0B0E0E4E2F0E10C948B144C016B01F3
:10204C00FB012281338164807580808191819A8328
:10205C008983A680B78037FD03C08D7F9A838983DF
:10206C00FA014081518162817381CE0101967C011C
:10207C0008E010E09301C6010E94FF0E298124FFA5
:10208C0006C00197F501E80FF91F20E32083298191
:10209C0023FF06C00197F501E80FF91F20E220830A
:1020AC0009811A81F6014085518541505109481B1F
:1020BC00590BB501680F791F9301C4010E940E12D0
:1020CC009C01F4018081918190FF06C0F601828110
:1020DC009381821793070CF4C9012296EEE00C94BD
:0220EC00C2141C
:1020EE00A0E0B0E0EDE7F0E10C949114AC01FA0140
:1020FE0090814F5F5F4F9032D1F3292F092E000C44
:10210E00330B295031092530310588F39B3271F597
:10211E0000E010E0319602C000E010E020E030E078
:10212E00A901C1910C2E000CDD0BE097CA30D10530
:10213E0078F4AAE0B0E00E944A166E01DD0FEE08B8
:10214E00FF089B01AC012C193D094E095F09E9CF2F
:10215E000115110541F466277727CB01621B730B1E
:10216E00840B950B08C0CA01B90105C09D32A1F6BA
:10217E0001E010E0CFCFCDB7DEB7E8E00C94C81485
:10218E000F931F93CF93DF93DB01109719F48FEF0B
:10219E009FEF3DC02D913C91119730FF25C01696B3
:1021AE004D915C91179714962D913C91159742176E
:1021BE00530778F41296ED91FC9113978083129643
:1021CE002D913C9113972F5F3F4F13963C932E9377
:1021DE00129716962D913C9117972F5F3F4F17969A
:1021EE003C932E93169713C01C96ED91FC911D9760
:1021FE00309769F2EB01092F182F0995892B39F6C3
:10220E008E819F8101969F838E83812F902FDF91E8
:08221E00CF911F910F9108956B
:10222600A2E0B0E0E9E1F1E10C948B145C016B01F2
:10223600FB012281338184809580808191819A83FC
:1022460089836680778037FD03C08D7F9A83898373
:10225600FA014081518162817381CE0101967C0130
:102266000AE010E09401C6010E94FF0E09811A815E
:10227600F6014085518541505109481B590BB30160
:10228600680F791F9401C5010E940E129C01F50189
:102296008081918190FF06C0F60182819381821729
:0E22A60093070CF4C9012296EEE00C94C214CA
:1022B400FF920F931F93CF93DF93C0EEC20FC036EC
:1022C40070F5F02ED82F0E9409150E9420158D2F2D
:1022D4000E94A91580E40E942716D0E08E01000F09
:1022E400111F0C0F1D1F000F111F0E5F1E4F219693
:1022F4009E01220F331FC20FD31FCC0FDD1FCE5FF1
:10230400DE4FF80181918F01F1E0FF1201C0809549
:102314000E9427160C171D07A1F70E94BE16DF9115
:0A232400CF911F910F91FF900895D3
:10232E00E89409C097FB3EF4909580957095619561
:10233E007F4F8F4F9F4F9923A9F0F92F96E9BB2717
:10234E009395F695879577956795B795F111F8CF93
:10235E00FAF4BB0F11F460FF1BC06F5F7F4F8F4FFE
:10236E009F4F16C0882311F096E911C0772321F0F4
:10237E009EE8872F762F05C0662371F096E8862F8C
:10238E0070E060E02AF09A95660F771F881FDAF7E3
:0A239E00880F9695879597F908952A
:1023A800A0E1B0E0EAEDF1E10C949314FB01BA016D
:1023B800AE014F5F5F4F7A0140E1D7011D924A9508
:1023C800E9F742E051E05A8349839C838B83F7FF06
:1023D80009C08FE490E090930101809300018FEF92
:1023E8009FEF14C0A9018C013197FE83ED83C701CB
:1023F8000E94F1144F8158852D813E814217530761
:1024080008F49A01F801E20FF31F10826096E6E0E3
:042418000C94CA1442
:10241C00A0E0B0E0E4E1F2E10C948D146C015B01FE
:10242C007A01E901480181E08822992400FD03C06A
:10243C004217530750F0A701B501C6010E946A1458
:10244C00EC16FD0610F0C70117C08E010E191F09FE
:10245C000115110541F0B60180E290E00E94C71011
:10246C0001501109F5CF8114910429F4A701B5018C
:10247C00C6010E946A14CE01CDB7DEB7ECE00C9415
:02248C00C41476
:10248E001F93CF93DF9300D00F92CDB7DEB7182FE7
:10249E000E94201580E60E94A915898389818831C2
:1024AE00B9F4812F0E9427168A838A81883291F48B
:1024BE000E94601680E60E94EC158B838B8180341F
:1024CE0059F40E94341689830E94BE16898105C074
:1024DE008FEF03C08FEF01C08FEF0F900F900F9013
:0824EE00DF91CF911F910895C9
:1024F6001F921FB61F9211248F939F93EF93FF9302
:102506008091CE0090913B0591111EC08B3351F402
:10251600E0913C05F0E0EE53FB4F108281E08093A2
:102526003B0512C08D3081F08A3071F090913C05E8
:102536009F3150F4E0913C0591E09E0F90933C054D
:10254600F0E0EE53FB4F8083FF91EF919F918F91C7
:082556001F901FBE1F90189595
:10255E00A2E8B0E0E5EBF2E10C948D145C014A01C7
:10256E007A836983C12CD12CE981FA8180818823F9
:10257E00E9F07401860120E830E0AE014D5F5F4F57
:10258E00BE016F5F7F4FC5010E94B9008C0D9D1D6E
:10259E008C159D054CF48FE490E09093010180938F
:1025AE0000018FEF9FEF03C06C01DECFC601CE5747
:0825BE00DF4FECE00C94C414A3
:1025C6001F93CF93DF93C82F162F61E20E945D15EC
:1025D60060E08C2F0E945D156FE78C2F0E945D15C1
:1025E60062E28C2F0E945D1560E08C2F0E945D15C3
:1025F60067E08C2F0E945D150E9420158C2F0E948B
:10260600A91580E40E942716C0E0D4E0812F0E941D
:1026160027162197D9F70E94BE16DF91CF911F91F9
:02262600089515
:102628000E94D01388F09F5798F0B92F9927B75177
:10263800B0F0E1F0660F771F881F991F1AF0BA955E
:10264800C9F714C0B13091F00E949F16B1E0089507
:102658000C949F16672F782F8827B85F39F0B93FF9
:10266800CCF3869577956795B395D9F73EF4909511
:0E2678008095709561957F4F8F4F9F4F08950D
:10268600DC01ED91FC91119780818A3221F080E086
:1026960090E03AE00EC03196ED93FC93DB01ED91AC
:1026A600FC911197CF0102968D939C938081918125
:1026B6000895ED91FC911197208120532A3068F4FA
:1026C600389FA001399F500D1124CA01820F911D18
:0C26D60031961196FC93EE93ECCF089522
:1026E200CF92DF92EF92FF920F931F93CF93DF93DC
:1026F200D82EC62F142F7901C02EF9012081222352
:1027020099F0D0E00C2D412F6C2F8D2D0E945A1183
:10271200CA5FC93710F01F5FC0E0DF5FF701ED0F3E
:10272200F11D20812111EECFDF91CF911F910F91E9
:0A273200FF90EF90DF90CF90089524
:10273C00A0E0B0E0E4EAF3E10C948F147C01FB011F
:10274C00EA01C901A280B380C480D58000811181C7
:10275C00209711F4CCE1D5E0009719F4CE010E943A
:10276C001916B7FC04C0A816B90608F4C5019601E1
:10277C00AC01BE01C7010E940E12CDB7DEB7EAE074
:04278C000C94C614CF
:1027900057FD9058440F551F59F05F3F71F0479512
:1027A000880F97FB991F61F09F3F79F087950895F7
:1027B000121613061406551FF2CF4695F1DF08C016
:1027C000161617061806991FF1CF86957105610533
:0427D00008940895CC
:1027D400A1E21A2EAA1BBB1BFD010DC0AA1FBB1F21
:1027E400EE1FFF1FA217B307E407F50720F0A21B93
:1027F400B30BE40BF50B661F771F881F991F1A9400
:1028040069F760957095809590959B01AC01BD0129
:04281400CF01089553
:10281800CF93DF93EC0190E0E92FF0E0EE0FFF1F7C
:10282800EE51FB4F8081811102C081810EC0A881C9
:10283800B9812C91821305C091811196B983A8831F
:1028480001C09F5F9B3040F3892FDF91CF9108959E
:102858000E943F160C98149A87B18F7887B98BB16C
:1028680080678BB910923A054C9B03C081E0809336
:102878003A054D9B05C080913A05826080933A05E0
:0E28880089B186958695837080933A050895F0
:10289600CF93DF9341155105A9F0DC01FB01EF0150
:1028A6008D91882351F09191992339F0413051054A
:1028B60021F041505109891791F390E02881821B3C
:0E28C600910902C080E090E0DF91CF9108956B
:1028D400A0E0B0E0E0E7F4E10C9491146C01EB01AA
:1028E4008A017B01E40EF51ECE15DF0541F08991C6
:1028F400B601082E000C990B0E94C710F5CFC80131
:0A290400CDB7DEB7E8E00C94C8146C
:10290E002F923F924F925F926F927F928F929F92F1
:10291E00AF92BF92CF92DF92EF92FF920F931F93DF
:10292E00CF93DF93CDB7DEB7CA1BDB0B0FB6F89490
:08293E00DEBF0FBECDBF0994FE
:1029460090913805992369F02091370528130BC01B
:10295600913059F0923059F4223059F08091330574
:10296600089580E0089580E0089581E0089580E06C
:06297600089580E00895C1
:10297C002A88398848885F846E847D848C849B8403
:10298C00AA84B984C884DF80EE80FD800C811B8111
:10299C00AA81B981CE0FD11D0FB6F894DEBF0FBE40
:0629AC00CDBFED0108950E
:1029B200ECE7F0E09081907F8770892B808386E03E
:1029C2008A95F1F700C0EAE7F0E0808180648083B5
:1029D200808186FDFDCF80917800909179000895E5
:1029E200A2E0B0E0E7EFF4E10C9495148C015A8375
:1029F2004983AE014F5F5F4F0E94AF12F801208101
:102A020024FF02C08FEF9FEF2296E4E00C94CC14D7
:102A1200CF93DF93D82FC62F60EB640F0E945D1512
:102A22006C2F6F708D2F0E945D156C2F62956F70E9
:0E2A3200605F8D2F0E945D15DF91CF9108959A
:102A4000CF93DF930F92CDB7DEB7198284EA8093DC
:102A5000BC00ECEBF0E080818823ECF78091B900BA
:0A2A600089830F90DF91CF91089554
:102A6A00CF93DF93D82FC62F0E94201580E60E94AD
:102A7A00A9158D2F0E9427168C2F0E9427160E94B7
:082A8A00BE16DF91CF91089503
:102A920087B1836087B988B18C7F88B987B18C7F11
:102AA20087B91092B90082E08093B800ECEBF0E0B5
:082AB200808184608083089597
:102ABA00CF93DF93D82FC62F0E9420158D2F0E9407
:102ACA00A91580E00E9427168C2F0E9427160E94C3
:082ADA00BE16DF91CF910895B3
:102AE200CF93DF93D82FC62F0E94201580E60E9435
:102AF200A9158D2F0E9427168C2F0E9427160E943F
:082B0200BE16DF91CF9108958A
:102B0A00A0E0B0E0EBE8F5E10C949714AE01475F62
:102B1A005F4F6F8178858D819E810E94A616E2E0C3
:042B2A000C94CE1425
:102B2E00A0E0B0E0EDE9F5E10C949714AE01475F3B
:102B3E005F4F6F8178858D819E810E94A616E2E09F
:042B4E000C94CE1401
:102B5200880F8093BB0084E88093BC00ECEBF0E02C
:102B620080818823ECF7E9EBF0E0808180818E7F21
:022B72000895C4
:102B74001092CD008CE08093CC00E8ECF0E08081F2
:102B84008260808388E98093C90086E08093CA00CC
:022B94000895A2
:102B9600092E0394000C11F4882352F0BB0F40F465
:102BA600BF2B11F460FF04C06F5F7F4F8F4F9F4FA5
:022BB600089580
:102BB800DB018F939F930E944A16BF91AF91A29F0A
:102BC800800D911DA39F900DB29F900D1124089523
:102BD800880F81608093BB0084E88093BC00ECEB95
:0E2BE800F0E080818823ECF78091B900089519
:102BF600CF93DF93EC018881882331F021960E94E0
:0E2C06007A1689918111FBCFDF91CF9108954D
:102C1400A29FB001B39FC001A39F700D811D112419
:0E2C2400911DB29F700D811D1124911D089508
:102C3200FC01AF014F5F5F4F2081222311F0FA01A7
:0C2C4200F8CF9F01281B390BC901089531
:102C4E008093BB0084E88093BC00ECEBF0E08081C5
:0A2C5E008823ECF78091B900089577
:102C680084E88093BC00ECEBF0E080818823ECF7EB
:062C78008091BB000895ED
:102C7E00ECE7F0E0808180648083EAE7F0E0808119
:062C8E00876880830895B1
:102C94000E940A16A59F900DB49F900DA49F800DCD
:062CA400911D11240895AA
:102CAA00EC010E94D6160E94D516CE010E94D716B4
:062CBA00CE010E94D316BA
:102CC00084EA8093BC00ECEBF0E080818823ECF791
:022CD000089565
:102CD2009C01215631092A31310510F48F7599274B
:022CE200089553
:102CE40061E08627682F619583E00E94711508953D
:102CF400E8ECF0E0908195FFFDCF8093CE0008953D
:102D04009C01215431092A31310508F48062089567
:0E2D14005058BB27AA270E94980E0C94CB158E
:0E2D220000240A9416161706180609060895CE
:0E2D300000240A9412161306140605060895D0
:0E2D3E00E894BB2766277727CB0197F9089505
:0E2D4C009A01AB016FEF7FE70E94D41108954A
:0C2D5A0097F99F6780E870E060E0089542
:0C2D6600EE0FFF1F0590F491E02D099482
:0A2D720010923C0510923B050895F5
:082D7C0084E98093BC00089576
:082D840060E00E94E3120895D3
:082D8C000E94F00C0C94CB1521
:082D94000E945F0D0C94CB15A9
:062D9C009FEF80EC08959A
:042DA2000C9400008D
:042DA6000E94B700D0
:022DAA0008958A
:022DAC00089588
:022DAE00089586
:102DB0000000000000000000002F000000000700DD
:102DC0000700147F147F1400242A7F2A1200231383
:102DD00008646200364955225000000503000000D7
:102DE000001C224100000041221C000014083E0883
:102DF000140008083E0808000000503000001010C1
:102E00001010100000606000000020100804020094
:102E10003E5149453E0000427F4000004261514919
:102E200046002141454B31001814127F1000274500
:102E3000454539003C4A4949300001710905030004
:102E4000364949493600064949291E0000363600F0
:102E5000000000563600000008142241000014143F
:102E60001414140000412214080002015109060044
:102E7000324959513E007E1111117E007F49494966
:102E800036003E41414122007F4141221C007F49E2
:102E9000494941007F09090901003E4149497A0039
:102EA0007F0808087F0000417F4100002040413F2B
:102EB00001007F08142241007F40404040007F0213
:102EC0000C027F007F0408107F003E4141413E001C
:102ED0007F09090906003E4151215E007F09192939
:102EE000460046494949310001017F0101003F4048
:102EF00040403F001F2040201F003F4038403F001F
:102F000063140814630007087008070061514945FD
:102F10004300007F414100000204081020000041EE
:102F2000417F000004020102040040404040400094
:102F30000001020400002054545478007F484444A7
:102F40003800384444442000384444487F00385412
:102F500054541800087E090102000C5252523E00DF
:102F60007F080404780000447D4000002080443D38
:102F700000007F102844000000417F4000007C04D6
:102F8000180478007C08040478003844444438006D
:102F90007C1414140800081414187C007C08040421
:102FA0000800485454542000043F444020003C4052
:102FB00040207C001C2040201C003C4030403C0055
:102FC0004428102844000C5050503C004464544C99
:102FD000440000083641000000007F00000000416E
:0A2FE0003608000010080810080071
:102FEA002530326C752E2530336C752E2530336CB6
:102FFA007520487A005258005458005553455200DB
:10300A0055534220004D6F64653A205B25735D205D
:10301A00202020004374726C3A205B25735D2020C7
:10302A000043757272656E7420467265713A20208B
:10303A002020200053454C4543540049444C452028
:10304A0020004544495420200053746174653A2095
:10305A00257300202020202020202020202020202E
:10306A00202020004A4F593A205550004A4F593AD9
:10307A0020444F574E004A4F593A204C4546540077
:10308A004A4F593A205249474854004A4F593A2020
:10309A00505245535300454E433A204357203E3E33
:1030AA0000454E433A203C3C2043435700454E439B
:1030BA003A20505245535300545825643B00464128
:1030CA000046412530396C753B0046420046422590
:1030DA0030396C753B0049463B0049463030312552
:1030EA0030396C752B30303030303043303030303E
:1030FA00303B0049443B004944303635303B004DB3
:10310A0044303B004D4430433B005348303B00536E
:10311A0048303030303B004E41303B004E41303079
:10312A003B004149004149303B00464C52545258F9
:10313A0020526164696F20496E697469616C697AA9
:06314A006564210D0A007E
:103150008096980040420F00A086010010270000D2
:10316000E8030000640000000A0000000100000005
:1031700068076C094C836A9074A07AC000806888E4
:0631800000846C82008156
:1031860000FF0100010000FFFF0000010001FF0039
:0831960000010304050708090C
:07319E00286E756C6C29001E
:0631A500286E696C290090
:0431AB00809FD5002C
:0431AF00809FD50028
:0131B300011A
:0131B4000119
:0131B5000316
:00000001FF
